:107E000001C0E2C011248FE598E09EBF8DBF84B70A
:107E1000811561F0982F9A70923041F081FF02C075
:107E200097EF94BF282E80E0BCD0EAC085E08EBDDD
:107E300082E08BB988E18AB986E880BD82E289B99F
:107E40008EE0AFD0B89A86E020E33CEF44E051E00A
:107E50003DBD2CBD48BF08B602FEFDCF98B39527A7
:107E600098BBA8955F9902C08A9591F793D0853504
:107E700009F44BC080F4853409F445C038F48134EA
:107E8000A1F1823409F43CC090D037C08135E1F7CC
:107E900088E087D0F9CF843709F467C0E8F48635E5
:107EA00009F43AC0843681F775D074D0182F72D097
:107EB000082F80E6E82EF12C90E6D92ED10E57013E
:107EC0008FEFE81AF80A66D0F5018083DE10F7CF4D
:107ED0006CD0053429F5FFCF8537B1F666D08EE139
:107EE00055D085E953D082E007C054D0182F5DD01B
:107EF00083E0113809F488E049D080E147D0B6CF5B
:107F000084E15BD0FACF85E0FCCF44D0C82F42D0CB
:107F1000D82FCC0FDD1FB8CF84E04FD080E0ECCF5E
:107F200083E0FE0187BFE89507B600FCFDCF20E0A7
:107F300030E081E0FE01E20FF31FD901A05ABF4FEC
:107F40004D915C910A0187BFE89511242E5F3F4F48
:107F50001213F0CF85E0FE0187BFE89507B600FC5D
:107F6000FDCF81E187BFE895C8CF14D013D0F82E9C
:107F700011D0182F1AD0153409F4FFCF8E01F80153
:107F800085918F0103D0FA94D1F7B7CF5D9BFECFD7
:107F90008CB908955F9BFECF5C9901C0A8958CB108
:107FA000089598E191BD81BD0895F4DF803219F004
:107FB00088E0F7DFFFCF84E1E9CFCF93C82FEADF76
:107FC000CA95E9F7CF91F1CFFC010A0167BFE895A7
:107FD000112407B600FCFDCF6670611529F0452B12
:0A7FE00019F481E187BFE8950895C8
:027FFE00030876
:0400000300007E007B
:00000001FF
