:103E000001C0E7C0112484B7811561F0982F9A7022
:103E1000923041F081FF02C097EF94BF282E80E0DE
:103E2000C3D0EEC085E08093810082E08093C00023
:103E300088E18093C10086E08093C20080E1809396
:103E4000C4008EE0B1D0259A86E020E33CEF91E0FB
:103E5000309385002093840096BBB09BFECF1D9AC3
:103E6000A8954091C00047FD02C08A9589F790D07F
:103E7000853509F448C080F4853409F442C038F42B
:103E8000813489F1823409F439C094D034C0813549
:103E9000E1F788E089D0F9CF843709F461C0D0F424
:103EA000863509F437C0843681F772D071D0182F67
:103EB0006FD0082FE12CFF24F39467018FEFE81AED
:103EC000F80A66D0F60180831E11F7CF73D005344F
:103ED00029F5FFCF8537C9F66DD08EE152D084E940
:103EE00050D086E007C054D0182F64D083E011383A
:103EF00009F488E046D080E144D0B9CF84E162D0B3
:103F0000FACF85E0FCCF44D0C82F42D0D82FCC0FB9
:103F1000DD1FBBCF84E056D080E0ECCF83E0FE0114
:103F200087BFE89507B600FCFDCFFE0120E031E039
:103F300081E0D9012E5F3F4F4D915C910A0187BF0F
:103F4000E895112432961213F4CF85E0FE0187BF65
:103F5000E89507B600FCFDCF81E187BFE895CBCFA0
:103F600017D016D0F82E14D0182F24D0153409F4F9
:103F7000FFCF8E01F80185918F0103D0FA94D1F71C
:103F8000BACF9091C00095FFFCCF8093C6000895F2
:103F90008091C00087FFFCCF8091C00084FD01C0EC
:103FA000A8958091C6000895E0E6F0E098E190833E
:103FB00080830895EDDF803219F088E0F5DFFFCFD0
:103FC00084E1DFCFCF93C82FE3DFCA95E9F7CF9124
:103FD000F1CFFC010A0167BFE895112407B600FC88
:103FE000FDCF6670611529F0452B19F481E187BF7B
:043FF000E8950895B3
:023FFE000308B6
:0400000300003E00BB
:00000001FF
