:100000000C94CE000C94ED000C94EB000C94EB00DF
:100010000C94EB000C94EB000C94EB000C94EB00B4
:100020000C94EB000C94EB000C94EB000C94EB00A4
:100030000C94EB000C94EB000C94EB000C94EB0094
:100040000C94EB000C94EB000C94EB000C94EB0084
:100050000C94EB000000000000000000020006000D
:100060000E00120014001500170018001A001B00E3
:100070001D001E002000210024002600270029006A
:100080002C002D0030003200350038003B003E00CF
:100090004100440047004B004E00530057005C00F5
:1000A0006000650069006F0074007A0080008700BE
:1000B0008D0095009C00A400AB00B400BD00C600FC
:1000C000D100DA00E600F000FC000801160123016F
:1000D0003201410152016201730186019801AD01B3
:1000E000C201D901EF01090222023D025A02760241
:1000F0009602B702D902FB0223034A0374039F034B
:10010000CC03FC032D0462049904D40411055005AA
:100110009405DA0523067006C10616077007CE0798
:100120003008960803097309EB09680AEB0A720B99
:10013000020C9D0C3B0DDE0D910E470F0810CB10ED
:10014000A01181126D135614561560168617A31848
:10015000DC191E1B811CEC1D5E1FD1208F2229245F
:10016000EA25DA27C529E12BF22D3730B9322335BC
:10017000CB374B3A073D074057436046654A1E4E12
:10018000E251F055345A935E42632868426D8B7297
:100190002F78347E6884C18ABF91E09811241FBEF5
:1001A000CFE5D8E0DEBFCDBF10E0A0E6B0E0E0E0F4
:1001B000F6E202C005900D92A039B107D9F722E00E
:1001C000A0E9B0E001C01D92A233B207E1F70E949E
:1001D00000110C94CE120C9400001F920F920FB6D7
:1001E0000F9211242F933F934F935F936F937F93BD
:1001F0008F939F93AF93BF93EF93FF930E94A70DAD
:10020000FF91EF91BF91AF919F918F917F916F91EE
:100210005F914F913F912F910F900FBE0F901F90C4
:100220001895FC018181813011F40C94EA10089535
:1002300080E090E00E94B91290E09093DB018093FF
:10024000DA018091DA019091DB01843A910530F076
:1002500083E090E09093DB018093DA0188B38F71A3
:1002600088BBBE9881EA87BBBC9A1DB81EB8E091D6
:10027000DA01F091DB01EE0FFF1FEC5AFF4F2591E1
:1002800035913093E3012093E201E091DA01F0919E
:10029000DB01E730F105B8F4E053FD4E0C94831117
:1002A00080E58DB981E08EB9089583E5FACF81E5C7
:1002B000F8CF81E58DB91EB8089582E5F2CF82E5C9
:1002C000F9CF83E5F7CFC798BE9887BB089587B36A
:1002D0008E7587BB18BA089588B38E7188BBBE9897
:1002E00087B3816A87BB0895482F8091DA01909186
:1002F000DB01079728F44FB9779BFECF8FB10895A4
:1003000028E030E080E090E8592F5423511529F17E
:10031000C59AE091E201F091E301F695E7953197F6
:10032000F1F7C79AE091E201F091E301F695E795C4
:10033000DF011197F1F7B699892B3197F1F7C7983B
:10034000E091E201F091E301F695E7953197F1F73D
:10035000969521503040C1F60895C598DACF3DB149
:100360002EB11DB81EB88091E2019091E301019772
:10037000F1F7C79A8091E2019091E3010197F1F7BB
:10038000C7983DB92EB908951F93CF93DF93D62F09
:10039000172FC42F0E947401812F0E9474018D2F8A
:1003A0000E9474018C2FDF91CF911F910C947401E6
:1003B0000C94740180E00C947401CF93CFB7F8943F
:1003C0008091D8019091D901019759F467E08BE2AF
:1003D0000E94450B1092D9011092D801CFBFCF9146
:1003E000089563E08BE20E94450B81E090E09093DA
:1003F000D9018093D801F2CFCF93DF938091900001
:1004000090919100892B09F45BC068E08BE20E9417
:10041000450B8091900090919100C0E0D0E0813434
:100420009105F0F1E091DC01F091DD0196E0EE0F35
:10043000FF1F9A95E1F7EC0FFD1FE955FF4F608113
:1004400089E20E94450B2196C034D10559F780916D
:10045000DC019091DD0101969093DD018093DC0138
:100460008091900090919100805491099093910017
:1004700080939000DF91CF910C94DD01E091DC013D
:10048000F091DD0186E0EE0FFF1F8A95E1F7EC0F9A
:10049000FD1FE955FF4F608189E20E94450B2196BF
:1004A0008091900090919100C817D90738F310926D
:1004B000DD011092DC011092910010929000DACFD1
:1004C000DF91CF910895FF920F931F93CF93DF9306
:1004D000C82FFFB6F89468E08BE20E94450BD0E08D
:1004E00000E010E00C171D0749F40E94DD01FFBE7B
:1004F000DF91CF911F910F91FF900895F801E95579
:10050000FF4F608189E20E94450B0F5F1F4FEACFCA
:10051000AF92BF92CF92DF92EF92FF920F931F9311
:10052000CF93DF938C01D62F2091D6013091D70144
:100530008091900090919100232B09F469C0065F8F
:100540001F4F611509F45BC025E12093A70027EC3C
:1005500030E03093E5012093E4018D3021E09207F3
:1005600008F44BC020EC2093A800C6E326E330E05B
:10057000821B930B909391008093900081E090E018
:100580009093D5018093D401F0909700D11509F490
:100590005AC08091A800811111C0CC2ED12CE090BE
:1005A000E401F090E501A601B801C7010E94B01274
:1005B000EC0CFD1CF092E501E092E40180919000CA
:1005C00090919100892B09F05EC18091A80081155E
:1005D00079F11092A1008091A4008E7F8093A400F5
:1005E00082E0DF91CF911F910F91FF90EF90DF900C
:1005F000CF90BF90AF900C9463021092A800C6E316
:100600002C2F30E08034910529F481E490E0B0CFC4
:10061000C0E4F6CF2817390708F4AACFC82F1092E4
:100620009100109290001092D5011092D401ACCF9D
:100630008091E4019091E501875C9040C82FF09093
:10064000980007EC10E0E12CCE112DC080919000B5
:1006500090919100892B09F016C1809192008178C8
:10066000813809F005C160919D0070919E0040E0C5
:10067000809195000E94C4018091920086FFCAC0BB
:10068000C8EC87EE93E00197F1F700C0000040E06E
:1006900060E070E080EF0E94C40180FFE9C0CA956D
:1006A00081F781E8DBC08091A40082FF1CC06091CB
:1006B000990070919A0080919B0090919C00BC01E0
:1006C000882799272091A5003091A6002617370783
:1006D0001806190641F07093A6006093A50040E04B
:1006E0008DE40E94C4018E2D8170B82ED11107C0F7
:1006F00080919400B11441F1886080939400F801D6
:1007000041918F016091990070919A0080919400BD
:100710000E94C4018091920080FD63C083FF16C0D7
:1007200098ECD92E87EE93E00197F1F700C0000016
:1007300040E060E070E080EF0E94C40180FF38C0BC
:10074000DA9481F781E82AC0877FD7CF82FF2BC058
:10075000F80182916F018F1531F1D11107C080919D
:100760009600B114F1F088608093960088ECA82E72
:1007700087EE93E00197F1F700C0000060919900C7
:1007800070919A0040E0809196000E94C401F601A9
:100790009081981769F0AA9459F780E88093A10096
:1007A00007C0877FE1CF8091930090E00E94F11015
:1007B0008D2F8B29811599F08091990090919A0045
:1007C000A0919B00B0919C000196A11DB11D80934A
:1007D000990090939A00A0939B00B0939C00E3949F
:1007E00033CFF80182918F1519F39091A40090FDF9
:1007F000DFCF2091990030919A003093A30020938D
:10080000A200E0FA882781F981609C7F892B809380
:10081000A400CECF85FF27C09091A40090FF23C0F5
:10082000D11107C08091960091FF1BC08860809312
:100830009600C8ECE7EEF3E03197F1F700C0000056
:100840006091A2007091A30040E0809196000E9408
:10085000C401F8120DC0CA9569F780E88093A10021
:1008600007C0877FE4CF8091930090E00E94F11051
:1008700085E1D11101C083E18093A7008091A1009F
:100880008093A800A6CEDF91CF911F910F91FF908A
:10089000EF90DF90CF90BF90AF900895EF92FF92CE
:1008A0000F931F93CF93DF93EC0110929900109256
:1008B0009A0010929B0010929C001092A1008091CF
:1008C000A4008A7F8093A4008FEF9FEF9093A600EF
:1008D0008093A5000E946C01DC9AC7988091E0018A
:1008E0009091E1010197F9F4C0988AE090E00E94AC
:1008F000F110C09A8AE090E00E94F110C0988AE05E
:1009000090E00E94F11080E18093A7008B8190E03D
:100910000E94F1100C8110E00115110581F480ECAA
:100920008093A8002FC0C09A8AE090E00E94F11046
:10093000C0988AE090E00E94F110C09AE0CF8885CC
:100940000E9474018D8190E00E94F11089850E94BF
:1009500074018D8190E00E94F1108A850E947401DB
:10096000E82E8D8190E00E94F1108B850E94740129
:10097000F82E8D8190E00E94F1109F8191110BC0A3
:100980001092A80082E0DF91CF911F910F91FF900C
:10099000EF900C946302933041F48E818E1581F3B5
:1009A0000E94AF0101501109B7CF9430C9F78E8171
:1009B0008F15F5CFCF92DF92EF92FF920F931F9397
:1009C000CF93DF93EC0189818D3340F48A816E01EE
:1009D00000E010E0E12CF12C8D3328F18DE18093C3
:1009E000A70089EC8093A80082E0DF91CF911F914E
:1009F0000F91FF90EF90DF90CF900C946302F6017F
:100A000084810E9474019B81E916F10434F0F8019D
:100A1000E755FF4F80830F5F1F4FFFEFEF1AFF0A6D
:100A20008FEFC81AD80A8981E816F10444F38A8145
:100A30000817110564F08DE18093A7001092A800BB
:100A4000F801E755FF4F108283E0800FCECF80E0A2
:100A5000D8CFEF92FF920F931F93CF93DF93EC01C8
:100A600060E08BE20E94450B68E08BE20E94450B40
:100A70008091D4019091D501892BB9F08091D30157
:100A8000833121F460E0CE010E9488028091D3017D
:100A9000853109F002C161E0CE01DF91CF911F9154
:100AA0000F91FF90EF900C948802E881E093D301BE
:100AB000E150ED3108F0F1C0F0E0E952FD4E0C9448
:100AC000831181E08093A7001092A8008AE08093B0
:100AD000A90081E48093AA0086E58093AB0082E5BB
:100AE0008093AC0089E48093AD0083E58093AE00F1
:100AF00080E58093AF008FE58093B0008DE4809314
:100B0000B1008BE48093B20082E38093B3008DE068
:100B1000DF91CF911F910F91FF90EF900C946302A2
:100B200082E08093A7001092A8008981883991F013
:100B30008E3939F48A81811106C01092E101109238
:100B4000E00182E0E5CF81E090E09093E1018093C5
:100B5000E001F7CF8A81843A10F083EA8A83282F54
:100B600030E04091DA015091DB018417150661F005
:100B70003093DB012093DA016091DA017091DB019F
:100B800080E090E00E94C1120E941801DACF83E059
:100B90008093A7001092A80089818439A1F038F4CD
:100BA000813961F0823951F01092A9000AC0883968
:100BB000D9F78091DA019091DB0101C089E080933F
:100BC000A90083E0A5CF82E3FACF85E08093A70058
:100BD0001092A800B6CF8A810E9474018B810E9476
:100BE00074018C810E9474010E94DA019CE190934F
:100BF000A7001092A8008093A9001092AA0084E098
:100C000087CF898190E0A0E0B0E080939900909335
:100C10009A00A0939B00B0939C00BA2FA92F982F05
:100C200088272A81822B8093990090939A00A09321
:100C30009B00B0939C00BA2FA92F982F88272B8157
:100C4000822B8093990090939A00A0939B00B0937D
:100C50009C00BA2FA92F982F88272C81822B809354
:100C6000990090939A00A0939B00B0939C00998167
:100C70008091A40097FB82F98093A40086E0A6CF20
:100C8000DF91CF911F910F91FF90EF900C94EA109C
:100C90008AE08093A7001092A800DF91CF911F9166
:100CA0000F91FF90EF900895CE010E944E04809125
:100CB000A4008E7F8093A4001092A100EECF40E0AC
:100CC00060E070E08DE40E94C401DC98C09A0E944C
:100CD000670181E18093A7001092A80082E00E9442
:100CE00063028091DE019091DF01892BB1F61092B1
:100CF000D9011092D801D1CF8B810E9474018C81CF
:100D00000E94740180E00E94740180E00E947401DE
:100D1000898190E00E94F11082E158CF89819A8107
:100D200098278927982790939100809390008B8132
:100D3000809392008C81809393008D8180939400A6
:100D40008E81809395008F81809396008885809313
:100D500097008985809398008091990090919A00DE
:100D6000A0919B00B0919C0080939D0090939E0069
:100D7000A0939F00B093A00081E090E09093D701F2
:100D80008093D60160E0CE010E9488021092D701C4
:100D90001092D60182CF89819A8198278927982736
:100DA0009C012F5F3F4F30939100209390002B8147
:100DB0002093960007EA10E0EC01C955DF4F30E2BE
:100DC000F32E48E2E42EC017D10721F584E1809389
:100DD000A7001092A8008091900090919100FC01D2
:100DE000E855FF4F10828F33910508F45DC080E411
:100DF0000E9463028091900090919100CE97909311
:100E000091008093900081E090E09093DD018093C9
:100E1000DC0143CF8091A40082FF1CC06091990047
:100E200070919A0080919B0090919C00BC01882752
:100E300099272091A5003091A6002617370718069C
:100E4000190641F07093A6006093A50040E08DE480
:100E50000E94C4016091990070919A0040E08091D5
:100E600096000E94C401F80182838091960080322E
:100E700029F4E09296000F5F1F4FA5CFF0929600E5
:100E80008091990090919A00A0919B00B0919C0054
:100E90000196A11DB11D8093990090939A00A09393
:100EA0009B00B0939C00E7CF8E5F0E9463021FCF30
:100EB0008A810E9474018B810E9474018C810E943E
:100EC00074010E94DA019AE192CE89810E94740134
:100ED0008A810E9474018B810E9474018C810E941E
:100EE000740189E18093A7001092A8005DCE8981EA
:100EF0009A81982789279827909391008093900052
:100F00008B81809392008C81809393008D8180935C
:100F100094008E81809395008F81809396008885C0
:100F20008093970089858093980080919900909193
:100F30009A00A0919B00B0919C0080939D0090939B
:100F40009E00A0939F00B093A00081E090E090935A
:100F5000D7018093D60161E016CF89819A819827C5
:100F6000892798279C012F5F3F4F30939100209352
:100F700090002B812093960007EA10E0EC01C95500
:100F8000DF4F0C171D0711F586E18093A700109223
:100F9000A8008091900090919100FC01E855FF4FCE
:100FA00010828F33910508F022CF8E5F0E9463027A
:100FB0008091D8019091D901019709F498CE81E0F0
:100FC00090E09093D9018093D80167CE6091990009
:100FD00070919A0040E0809196000E94C401F8014F
:100FE00082838091990090919A00A0919B00B0918A
:100FF0009C000196A11DB11D8093990090939A00C9
:10100000A0939B00B0939C000F5F1F4FBACF8981C4
:101010000E9474018A810E9474018B810E94740174
:101020008C810E94740187E15DCF8A810E947401E6
:101030008B810E9474018C810E9474010E94DA01EC
:1010400098E1D5CD8A810E9474018B810E94740140
:101050008C810E9474010E94DA019BE1C8CD10923C
:10106000DF011092DE01CE01DF91CF911F910F9130
:10107000FF90EF900C94DA04E2E2F2E087E28183E1
:1010800085E2808320E22283138288E090E09583CA
:101090008483E6E1F2E033E2318331E2308322837C
:1010A00013829583848308958EE00C942E0BCF9346
:1010B00088E00E942E0BC82F86FF18C060E085E0F4
:1010C0000E94450B60E884E00E94450B60E080E2EE
:1010D0000E94450B68E083E20E94450B61E087E2D5
:1010E0000E94450B62E085E00E94450BC4FF04C0EE
:1010F00060EC89E00E94450BC7FF05C060ED89E008
:10110000CF910C94450BCF91089508950F931F93A1
:10111000CF93DF93EC018885998518161906A4F5FD
:101120002E813F81281739076CF468E083E20E9422
:10113000450B08E010E08E819F8128853985821754
:1011400093072CF061E087E20E94450B15C0EA8509
:10115000FB85E80FF91F608181E20E94450B8E81BB
:101160009F8101969F838E830150104021F728852F
:1011700039858217930734F789819B81913049F42F
:1011800065E00E94450B1B82DF91CF911F910F916B
:10119000089561E00E94450B81E08B83F5CFCF93EA
:1011A00082E20E942E0BC82F85FF1BC068E083E2FD
:1011B0000E94450BC6FF10C020911C0230911D02F9
:1011C00080911E0290911F02281739072CF486E1A6
:1011D00092E0CF910C94860861E087E2CF910C9465
:1011E000450BCF9108958AE00E942E0B80FD0C9450
:1011F000CF0881FF0CC08AE20E942E0B80910D0265
:10120000813059F4E0911002F0911102099482E3C7
:101210000E942E0B8AE30C942E0B0895CF93DF933C
:10122000EC0160E480E20E94450B6A81605884E032
:101230000E94450B8A818093E601DF91CF9108954A
:10124000CF93DF9300D000D0CDB7DEB7FC01828111
:101250009381292F332710921D0210921C0241E026
:10126000409319022230310589F12330310509F408
:1012700043C02130310501F58091F00190E0909359
:101280001F0280931E0280EF91E0909321028093D1
:101290002002868197818830910559F480E490E09E
:1012A0009783868388E090E090931F0280931E02CC
:1012B00003C080349105B1F386E192E00F900F9066
:1012C0000F900F90DF91CF910C9486082681378183
:1012D00030931F0220931E029927880F991FE091D7
:1012E000EE01F091EF01E80FF91F80819181909359
:1012F000210280932002E0CF811599F09927880F71
:10130000991FE091EC01F091ED01E80FF91F0190B8
:10131000F081E02DF0932102E0932002808190E0A3
:10132000C3CF84E090E090931F0280931E02CE0111
:101330000196DDCF089568E08BE20E94450B62E1E3
:1013400088E20E94450B68E08FE20E94450B62E153
:101350008CE20E94450B61E08FE20E94450B65E044
:1013600083E20C94450B6091E70181E20C94450BFC
:10137000CF92DF92EF92FF920F931F93CF93DF9361
:10138000CDB7DEB728970FB6F894DEBF0FBECDBF3E
:1013900086E20E942E0B86FF74C0CE0101967C016E
:1013A0006E0199E0C90ED11C8701809122020E9432
:1013B0002E0BF70181937F01EC15FD05B1F768E075
:1013C00087E20E94450B68E083E20E94450B80E2C1
:1013D0000E942E0B682F6F7780E20E94450B898157
:1013E00080768032B1F1803409F447C081113CC06D
:1013F000EA81EC30C8F5F0E0EC50FD4E0C9483111E
:10140000C8010E94B3098981811104C065E083E2AB
:101410000E94450B28960FB6F894DEBF0FBECDBFD5
:10142000DF91CF911F910F91FF90EF90DF90CF90C0
:101430000895C8010E942009E6CF68E083E20E9477
:10144000450B61E081E20E94450B60E081E20E9471
:10145000450B65E083E20EC0C8010E940E09D3CFA0
:10146000C8010E949B09CFCF80E20E942E0B60E84A
:10147000680F80E20E94450BC6CFC8010E9411018F
:10148000E8CF80911E0290911F0220911A023091A4
:101490001B02281739070CF0BDCF10921F021092C3
:1014A0001E0268E083E20E94450B61E087E2289615
:1014B0000FB6F894DEBF0FBECDBFDF91CF911F9165
:1014C0000F91FF90EF90DF90CF900C94450BCF924F
:1014D000DF92EF92FF920F931F93CF93DF93CDB7DD
:1014E000DEB7C054D1090FB6F894DEBF0FBECDBF32
:1014F0008CE00E942E0B80FF11C0C05CDF4F0FB646
:10150000F894DEBF0FBECDBFDF91CF911F910F9139
:10151000FF90EF90DF90CF900C94B80981FF3AC014
:101520008EE20E942E0B8DE20E942E0B89838E018B
:101530000F5F1F4F78016E0180E4C80ED11C0F5F52
:101540001F4F0E94230BF80180830C151D05B9F76E
:1015500080910202813031F4E0910502F09106029F
:10156000C701099568E08FE20E94450B61E08FE2B8
:101570000E94450BC05CDF4F0FB6F894DEBF0FBE74
:10158000CDBFDF91CF911F910F91FF90EF90DF9032
:10159000CF90089582FF29C086E30E942E0B85E339
:1015A0000E942E0B89838E010F5F1F4F78016E0101
:1015B000F0E4CF0ED11C0F5F1F4F0E94230BF801E8
:1015C00080830C151D05B9F780910302813031F439
:1015D000E0910702F0910802C701099568E087E3EE
:1015E0000E94450B61E087E3C3CF83FFC3CF8EE347
:1015F0000E942E0B8E010F5F1F4F6E01F1E4CF0E84
:10160000D11C78018DE30E942E0BF80181938F018C
:10161000EC15FD05B9F780910402813009F0AACFDD
:10162000E0910502F0910602C7010995A3CF85B7A5
:10163000826085BF8BB780648BBF88EF81BB82B32C
:10164000886382BB089582B398E1892782BB00003A
:10165000000082B3892782BB83B308959FEF94BBB8
:1016600085BB82B398E6892782BB82B3892782BB78
:10167000000014BA0C94230B85BB82B398E289272F
:1016800082BB82B3892782BB0895982F862F95BB92
:101690009FEF94BB92B328E6922792BB92B3922716
:1016A00092BB0C943C0B0895E0EFF1E082E1808363
:1016B00081E0818380E191E09383828314821582AB
:1016C000168288E087831186108613861286158617
:1016D000148616861786108A118AE2E0F2E01082DC
:1016E00011821282EDE0F2E01082118212821092D9
:1016F000EB011092EA011092E9011092E8010895BD
:10170000E0EFF1E091878087738762875587448790
:1017100008959093F9018093F80108959093FB0147
:101720008093FA0108959093FD018093FC01089540
:101730008093F40108958093F50108958093F60154
:101740000895AC019B01E091EA01F091EB01309723
:1017500009F408958281823079F4A081B1811596CF
:101760008C9115978417150639F4C90137FD019638
:101770009595879518968C930780F085E02DE7CF97
:10178000CF93DF939C01DB01E091EA01F091EB0143
:10179000309719F4DF91CF9108958281843059F404
:1017A00084818217130639F486818A171B0619F47F
:1017B000C081D1814B830780F085E02DE9CF9093E4
:1017C0000C0280930B0208956F927F928F929F92EA
:1017D000AF92BF92CF92DF92EF92FF920F931F933F
:1017E000CF93DF93E090EA01F090EB01612C712C34
:1017F000E114F10469F58301000F111FC8010E9473
:1018000089119093EF018093EE0102501109CC24CD
:10181000C394D12C6C147D0434F500E010E0A12CAD
:10182000B12C29E030E081E090E0681679060CF0F8
:1018300067C0DF91CF911F910F91FF90EF90DF90E4
:10184000CF90BF90AF909F908F907F906F900895B2
:10185000E7018A81823019F4DFEF6D1A7D0AF70102
:10186000E780F084C5CFE091EA01F091EB0189E0D7
:10187000882E912C309771F5A090EE01B090EF0179
:10188000A00EB11EC4010E948911E50199838883CD
:10189000D70180E090E02D91E091EE01F091EF0111
:1018A000E00FF11F0190F081E02DE80FF91F208378
:1018B00001968930910579F7E091EE01F091EF0101
:1018C000E00FF11F0190F081E02D8282DFEFCD1A51
:1018D000DD0AA0CFA081B18184818C151D0419F48B
:1018E0008381880E911C15968C9115978C1104C0DC
:1018F0008281823009F47D010780F085E02DBACF26
:10190000E091EA01F091EB01309789F0A081B1817B
:1019100011964C911197423099F415964C91159768
:101920004817190669F414964C91A42EB12C41E085
:1019300050E0A416B50644F401960E5F1F4F75CF14
:101940000780F085E02DE0CFA091EA01B091EB0196
:10195000109719F44F5F5F4FECCFED91FC91119709
:101960006181643071F516966C91169764171506AF
:1019700041F514966C9114976817190611F5EF014B
:10198000E12CF12CD9906091EE017091EF01600F84
:10199000711FFB0160817181620F731F6E0D7F1DCE
:1019A000FB01D082FFEFEF1AFF0A69E0E616F104AF
:1019B00049F7275F3F4FE091EA01F091EB01309743
:1019C00029F417960D90BC91A02DC2CF628165308D
:1019D00039F564816817190619F5658164171506CC
:1019E000F9F4C080D180E12CF12CE60199906E01D0
:1019F0006091EE017091EF01600F711FEB01688142
:101A00007981620F731F6E0D7F1DEB019882DFEFEE
:101A1000ED1AFD0A67E0E616F10439F7295F3F4F3A
:101A20000780F085E02DCBCFEF92FF920F931F93AD
:101A3000CF93DF93C091E801D091E901FE0180E0EE
:101A400090E00380F481E02D01963097D1F7880F64
:101A5000991F0E9489119093ED018093EC010881F8
:101A600019818A81E090EC01F090ED01E80EF11C03
:101A7000E80EF11CF801808190E00E948911F701C5
:101A800091838083D80180E090E0F8012081821763
:101A9000910564F00B80DC81C02D209701F7DF9168
:101AA000CF911F910F91FF90EF9008952D913A8162
:101AB000E091EC01F091ED01E30FF11DE30FF11D59
:101AC0000190F081E02DE80FF91F20830196DDCF12
:101AD0000E94E40B0E94140D0E943C0861E080E02B
:101AE0000E94450B80E00E942E0B80FDFBCF62E040
:101AF00081E00E94450B60E884E00E94450B60E4B1
:101B000080E20E94450B68E083E20E94450B69E099
:101B100087E20E94450B6FE08DE00E94450B6FE06D
:101B20008BE00E94450B68ED89E00E94450B63E362
:101B30008FE00E94450B66ED87E00E94450B62E056
:101B400085E00E94450B6CEC80E00C94450BCF9334
:101B500086E00E942E0BC82F84FD0E945408C6FD0B
:101B60000E94670AC2FD0E94F308C1FD0E94570847
:101B700087E00E942E0BC82F60E087E00E94450B93
:101B80006C2F87E0CF910C94450BCF92DF92EF92B0
:101B9000FF920F931F93CF93DF937C01C090E801D6
:101BA000D090E90111E0C114D104D9F485E090E0AE
:101BB0000E9489119093E9018093E801FC01E08281
:101BC000F18212821482138210E0812FDF91CF9173
:101BD0001F910F91FF90EF90DF90CF9008951F5FBE
:101BE0006C01F601838194810097C9F785E090E04C
:101BF0000E948911EC01F60194838383E882F982C3
:101C00001A831C821B82E1CF0F931F93CF93DF9324
:101C1000EC01FC0101900020E9F7CF018C1B9D0B2A
:101C2000880F991F0E9489118C01FE0101900020EC
:101C3000E9F7CF018C1B9D0B880FF801808383E0AF
:101C400081839E01D80180E090E0FE010190002098
:101C5000E9F73197EC1BFD0B12968E179F0748F0A2
:101C6000C8010E94C50D90E0DF91CF911F910F91A7
:101C70000895F90141919F014C9311961C9211977F
:101C80000196E3CFCF93DF930E94040E009711F0EB
:101C90008093FE01DF91CF910895CF93DF930E944F
:101CA000040E009711F08093FF01DF91CF9108950A
:101CB000CF93DF930E94040E009711F080930002EF
:101CC000DF91CF910895CF93DF93EC01CB010E9478
:101CD000040EE091EA01F091EB01309719F4DF91E5
:101CE000CF9108959281923051F4A081B1811596DF
:101CF0009C9115979C171D0611F416968C930780DE
:101D0000F085E02DEACF0F931F93CF93DF93EC0183
:101D10008B01CA010E94040EE091EA01F091EB01EF
:101D2000309729F4DF91CF911F910F9108959281FF
:101D3000943061F494819C171D0641F496819017AC
:101D4000110621F4A081B18118968C930780F0854B
:101D5000E02DE6CF9F92AF92BF92CF92DF92EF92AB
:101D6000FF920F931F93CF93DF93982EA92EB62E39
:101D7000F42E122FE091EA01F091EB013097F1F48B
:101D800089E090E00E9489119093EB018093EA0131
:101D9000FC019082A182B38210861782F2821483A2
:101DA0000583E682DF91CF911F910F91FF90EF9015
:101DB000DF90CF90BF90AF909F9008956F01078004
:101DC000F085E02D3097D1F789E090E00E948911ED
:101DD000EC01F601908787839882A982BB82FA8200
:101DE0001C830D83EE8218861F82DCCFEF920F9347
:101DF0001F93CF93DF93E0EFF1E011891F5F118B09
:101E000089E090E00E948911EC0189E0888389E0F3
:101E100090E09B838A8382E089831C821D831E82DB
:101E200080E88F838AE18887E12C00E020E042E0AF
:101E300069E0CE010E94AA0E812F90E0DF91CF9140
:101E40001F910F91EF900895BF92CF92DF92EF9282
:101E5000FF920F931F93CF93DF93182FB62EE42E8C
:101E6000F22EE091EA01F091EB01C12CD12C3097D8
:101E700019F589E090E00E948911EC0189E08883DE
:101E800084E08983BA821B821C82ED82FE820F83EA
:101E90001886EC2C00E0212F44E069E0CE010E947E
:101EA000AA0EC601DF91CF911F910F91FF90EF9085
:101EB000DF90CF90BF900895A081B18115968C914D
:101EC000159781130AC08281823039F41496CC9020
:101ED0001497C3941496CC92D12C0780F085E02DF2
:101EE000C6CFCF92DF92EF920F931F93CF93DF93E2
:101EF000182F062FE091EA01F091EB01C12CD12CB3
:101F0000309709F589E090E00E948911EC0189E0A1
:101F1000888384E089830A831B821C821D821E823F
:101F20001F821886EC2C00E0212F44E069E0CE01EE
:101F30000E94AA0EC601DF91CF911F910F91EF90E1
:101F4000DF90CF900895A081B18115968C9115975F
:101F500081130AC08281823039F41496CC90149790
:101F6000C3941496CC92D12C0780F085E02DC8CF75
:101F70008F929F92AF92BF92CF92EF92FF920F9368
:101F80001F93CF93DF935C014B01122FE091EA0185
:101F9000F091EB01309711F587E090E00E948911F4
:101FA000EC0187E0888385E089831A830B83EC82C8
:101FB000FD82CE82E12C082D2A2D45E067E0CE017E
:101FC0000E94AA0EDF91CF911F910F91FF90EF9089
:101FD000CF90BF90AF909F908F90089584818A1585
:101FE0001B0479F486818815190459F482818430A0
:101FF00041F4A081B18114968C9114978F5F14964F
:102000008C930780F085E02DC5CFAF92BF92CF9221
:10201000DF92EF92FF920F93FA0142305105C1F027
:1020200043305105E9F04130510539F441E0409326
:102030000202A0920502B0920602AF010E94B80F00
:102040000F91FF90EF90DF90CF90BF90AF900895E9
:1020500041E040930302A0920702B0920802EDCF44
:1020600041E040930402A0920902B0920A02E5CF37
:10207000AF92BF92CF92DF92EF92FF920F93CF93E6
:10208000DF93FA01E901D501AB2B81F04230510514
:10209000E9F04330510511F14130510539F421E0A7
:1020A00020930D02B0921102A09210029E012058BE
:1020B0003F4FAF010E94B80FDF91CF910F91FF907A
:1020C000EF90DF90CF90BF90AF90089521E02093E4
:1020D0000E02B0921302A0921202E8CF21E02093E8
:1020E0000F02B0921502A0921402E0CFFC011182FF
:1020F0001082668377836483758342835383428728
:102100005387408751878FEF84870895FC01208192
:1021100031818281938128173907BCF4A681B78168
:102120006D9382859385019721F482819381A81B09
:10213000B90B93878287B783A683808191810196AB
:102140009183808381E090E0089580E090E008959D
:10215000FC0180819181892BE1F3A481B5818D916E
:10216000208531852150304021F422813381A21B0A
:10217000B30BB583A483318720872081318121501F
:102180003109318320830895CF93DF93FC01EB0164
:102190008081918118161906D4F4A481B5812D91FE
:1021A00080859185019721F482819381A81BB90BC9
:1021B000B583A483918780878081918101979183E2
:1021C0008083288381E090E0DF91CF9108958FEFA5
:1021D0009FEFFACFDC9AF894E0916000F0916100F3
:1021E00009949C0180E090E0821793070CF0089519
:1021F000EFE9FFE03197F1F700C000000196F4CF5E
:1022000000D0CDB7DEB70E9418010E9467010E947E
:10221000540B1092D5011092D40181E090E090937C
:10222000DF018093DE011092DD011092DC019093BA
:10223000E1018093E0011092D9011092D80180E170
:102240008ABBDC98C09A8BEE93E00E94890B84E0F5
:1022500091E20E948E0B80E092E00E94930B89E055
:1022600094E09A838983CE0101960E94040E88E649
:1022700090E00E94420E81E790E00E944D0E82E8BD
:1022800090E00E94580E0E94F60E982E192F62E3DD
:1022900070E00E94A10B60E070E0892D912F0E94F8
:1022A000710F782E892E40E050E0682F792F892D0C
:1022B000912F0E94C00B8CEFA82E81E0B82EC12C6C
:1022C000D12C90E4E92EF12C02E022E030E041E054
:1022D00050E0672D782D892D912F0E94381029E22A
:1022E000A22E25E0B22E22E030E041E050E0672D42
:1022F000782D892D912F0E9405100E94170B78943C
:102300000E94680DFFCFEE0FFF1F0590F491E02DA6
:1023100009940F931F93CF93DF939C01029710F4BE
:1023200022E030E0E0912E02F0912F0280E090E078
:10233000A0E0B0E0309791F4009709F448C0821B08
:10234000930B84309105D0F58A819B8161157105CD
:1023500081F1FB0193838283FE0111C04081518191
:102360000281138142175307D8F04217530799F49B
:10237000109761F012960C93129713961C93329655
:10238000CF01DF91CF911F910F91089500932E02FD
:1023900010932F02F4CF009751F04817590738F0E7
:1023A000AC01DB01CA01BD01DF01F801C3CFEF01C0
:1023B000F9CF90932F0280932E02CECFFE01E80F2B
:1023C000F91F21933193029799838883D9CF409144
:1023D0003002509131024115510541F440916400A1
:1023E0005091650050933102409330028091620019
:1023F00090916300009741F48DB79EB7609166009D
:1024000070916700861B970B4817590708F0B8CFE3
:10241000841B950B8217930708F4B2CFB9016E5F46
:102420007F4F8617970708F4ABCF640F751F709323
:10243000310260933002FA0121933193A1CFCF93FF
:10244000DF939C010097E9F0FC013297138212821E
:10245000C0912E02D0912F02DE0180E090E0209703
:10246000A1F480819181280F391F809130029091D1
:1024700031028217930709F068C0F0933102E093AC
:102480003002DF91CF910895DA01AE17BF0708F04F
:1024900042C012964D915C911397CD0141155105A3
:1024A00099F7DC011396FC93EE9312974D915D9191
:1024B0009D01240F351FE217F30781F4208131813C
:1024C0002E5F3F4F240F351FDC0111963C932E9356
:1024D0002281338113963C932E931297E0E0F0E033
:1024E0008A819B810097B1F5DE018D919D918A0FC4
:1024F0009B1F20913002309131022817390709F6CD
:10250000309759F510922F0210922E02D09331027B
:10251000C0933002B6CFB383A28340815181240F90
:10252000351FA217B30771F44E5F5F4F2D913C9199
:102530001197240F351F3183208312962D913C91E2
:1025400033832283009709F0ACCFF0932F02E093FE
:102550002E0297CFFE01EC01C3CF13821282D6CF99
:10256000FB01DC0102C001900D9241505040D8F7B0
:102570000895E199FECF9FBB8EBBE09A99278DB35A
:102580000895262FE199FECF9FBB8EBB2DBB0FB6C2
:10259000F894E29AE19A0FBE01960895F894FFCF5D
:1025A00050015501570159015D015F01610161054C
:1025B0009005C7054D06E505010640064D064D068A
:1025C00048064D064D064D064D064D0654065F065F
:1025D0007C068E06CB067707AD070708150865074A
:1025E00058072208EB052F081D0A030A340A290A96
:1025F000340A2C0A190A340A000A300A030A290A82
:102600000070000032022000422E53617574657222
:1026100000415652495350206D6B3220436C6F6E0F
:1026200065003030303041303031323832353500AD
:00000001FF
