:107800000C942A3C0C94473C0C94473C0C94473C09
:107810000C94473C0C94473C0C94473C0C94473CDC
:107820000C94473C0C94473C0C94473C0C94473CCC
:107830000C94473C0C94473C0C94473C0C94473CBC
:107840000C94473C0C94473C0C94473C0C94473CAC
:107850000C94473C11241FBECFE5D8E0DEBFCDBF5E
:1078600010E0A0E6B0E0E6E6FEE702C005900D926B
:10787000A236B107D9F711E0A2E6B0E001C01D922F
:10788000AD36B107E1F70E94D53C0C94323F0C9421
:10789000003C482F41504F3FB1F0C09A28EE33E0F2
:1078A00080E991E00197F1F721503040C9F7C09885
:1078B00028EE33E080E991E00197F1F72150304064
:1078C000C9F7415050F70895EF92FF920F931F931D
:1078D000EE24FF2487015F9B03C017C05F9915C08A
:1078E0000894E11CF11C011D111D81E4E81682E4DD
:1078F000F8068FE0080780E0180780F3E091620047
:10790000F091630009955F9BEBCF8CB1992787FDC0
:1079100090951F910F91FF90EF9008955D9BFECF82
:107920008CB908950E94643C803271F080916400AB
:107930008F5F80936400853009F00895E0916200C4
:10794000F09163000995089584E10E948E3C80E1E6
:107950000E948E3C0895CF93C82F0E94643C8032D1
:1079600041F0809164008F5F80936400853081F4E2
:107970000AC084E10E948E3C8C2F0E948E3C80E1E4
:107980000E948E3C05C0E0916200F0916300099571
:10799000CF910895CF93C82FC150CF3F21F00E94BF
:1079A000643CC150E0F7CF910895CFE5D8E0DEBF49
:1079B000CDBF000010BC83E389B988E18AB986E8AD
:1079C00080BDB89A81E00E94493C0E94643C8033AB
:1079D000B1F18133B9F1803409F455C0813409F42F
:1079E0005BC0823409F46DC0853409F470C0803501
:1079F00031F1823521F1813511F1853509F46BC002
:107A0000863509F473C0843609F47AC0843709F4E2
:107A1000D2C0853709F42DC1863709F44AC0809158
:107A200064008F5F80936400853079F6E091620096
:107A3000F091630009950E94643C803351F60E94E6
:107A4000923CC3CF0E94643CC82F803241F784E14E
:107A50000E948E3C81E40E948E3C86E50E948E3C12
:107A600082E50E948E3C8C2F0E948E3C89E40E940D
:107A70008E3C83E50E948E3C80E50E948E3C80E136
:107A80000E948E3CA2CF0E94643C8638C0F20E94C5
:107A9000643C0E94923C99CF0E94643C803809F477
:107AA00004C1813809F486C1823809F487C1883954
:107AB00021F080E00E94AB3C88CF83E00E94AB3C89
:107AC00084CF84E10E94CA3C0E94923C7ECF85E034
:107AD0000E94CA3CF9CF0E94643C809366000E94D9
:107AE000643C809367000E94923C6FCF0E94643C8C
:107AF000803309F4CEC083E00E94CA3C80E0DACF34
:107B00000E94643C809369010E94643C80936801F8
:107B100080916C018E7F80936C010E94643C85345F
:107B200009F4CBC000E010E08091680190916901F8
:107B30001816190670F4C8E6D0E00E94643C8993D8
:107B40000F5F1F4F80916801909169010817190715
:107B5000A0F30E94643C803209F061CF80916C01F7
:107B600080FFB5C0E0916600F0916700EE0FFF1F47
:107B700000E010E0209168013091690112161306AF
:107B8000A0F4A8E6B0E08C91E199FECFFFBBEEBB7C
:107B90008DBB0FB6F894E29AE19A0FBE31960F5F53
:107BA0001F4F11960217130770F3F0936700E093CD
:107BB000660084E162CF0E94643C809369010E9468
:107BC000643C809368018091660090916700880F03
:107BD000991F90936700809366000E94643C8534EF
:107BE00009F471C080916C018E7F80936C010E94BA
:107BF000643C803209F0E9CE84E10E948E3C00E0D2
:107C000010E020916801309169011216130608F006
:107C100036CFE0916600F091670080916C0180FFA3
:107C20001FC0E199FECFFFBBEEBBE09A8DB30E946F
:107C30008E3CE0916600F09167003196F09367000A
:107C4000E093660020916801309169010F5F1F4F3A
:107C50000217130708F013CF80916C0180FDE1CF6C
:107C6000869580FFAFC03196F0936700E093660081
:107C7000EDCF0E94643C803209F0D1CE84E10E94B5
:107C80008E3C8EE10E948E3C85E90E948E3C82E013
:107C9000F4CE0E94643C0E94643CC82F0E94643C65
:107CA000CC2309F47FC0C13021F082E00E94AB3CBC
:107CB0008CCE85E90E94AB3C88CE80916C018160BE
:107CC00080936C012FCF80916C0181608ECF809169
:107CD000670087FD6BC010926B01809166009091E8
:107CE0006700880F991F90936700809366008091CA
:107CF000680180FF09C08091680190916901019637
:107D00009093690180936801F894E199FECF11275F
:107D1000E0916600F0916700C8E6D0E080916801CC
:107D200090916901103091F4009157000170013079
:107D3000D9F303E000935700E895009157000170D4
:107D40000130D9F301E100935700E89509901990AB
:107D50000091570001700130D9F301E00093570002
:107D6000E8951395103498F0112700915700017091
:107D70000130D9F305E000935700E89500915700D2
:107D800001700130D9F301E100935700E895329674
:107D9000029709F0C7CF103011F00296E5CF1124F9
:107DA00084E16BCE8EE10E94AB3C0FCE81E08093EC
:107DB0006B0193CF81E00E94AB3C07CE80E10E9433
:107DC000AB3C03CE84910E948E3C2091680130919F
:107DD0006901E0916600F091670045CFCF930E9462
:107DE000643CC82F0E948E3CC13614F0C75503C0B6
:107DF000C0330CF0C0538C2F992787FD9095CF91FD
:107E000008950F931F930E94EE3E082F112707FD40
:107E1000109502951295107F1027007F10270E9461
:107E2000EE3E800F992787FD90951F910F91089541
:107E3000CF93C82F85958595859585958A3034F0A3
:107E4000895ACF70CA3034F0C95A05C0805DCF70EE
:107E5000CA30D4F7C05D0E948E3C8C2F0E948E3CAD
:067E6000CF910895FFCF51
:027E660080009A
:040000030000780081
:00000001FF
