:107800000C942A3C0C94473C0C94473C0C94473C09
:107810000C94473C0C94473C0C94473C0C94473CDC
:107820000C94473C0C94473C0C94473C0C94473CCC
:107830000C94473C0C94473C0C94473C0C94473CBC
:107840000C94473C0C94473C0C94473C0C94473CAC
:107850000C94473C11241FBECFE5D8E0DEBFCDBF5E
:1078600010E0A0E6B0E0ECE2F4E802C005900D9272
:10787000A236B107D9F721E0A2E6B0E001C01D921F
:10788000AD36B207E1F70E94923D0C9414420C947D
:10789000003CCF92DF92EF92FF92C12CD12C760167
:1078A0005F9914C08FEFC81AD80AE80AF80A81E471
:1078B000C81682E4D8068FE0E806F10488F3E09168
:1078C0006200F091630009955F9BECCF9CB1892F1A
:1078D0005D9BFECF9CB991364CF4903314F080ED53
:1078E000890FFF90EF90DF90CF90089589EA890F7C
:1078F000FF90EF90DF90CF900895CF930E94493C86
:10790000C82F0E94493C90E1C99F800D1124CF915E
:107910000895982F9595959595959595905D8F706F
:107920008A3044F0895A5D9BFECF9CB95D9BFECFA7
:107930008CB90895805DF7CF5D9BFECF8CB908951B
:10794000CF92DF92EF92FF92C12CD12C76015F99FA
:1079500014C08FEFC81AD80AE80AF80A81E4C816DA
:1079600082E4D8068FE0E806F10488F3E091620033
:10797000F091630009955F9BECCF8CB1FF90EF9085
:10798000DF90CF900895CF92DF92EF92FF92CF9346
:107990008823E9F0C82FC12CD12C76015F9914C03F
:1079A0008FEFC81AD80AE80AF80A81E4C81682E4F8
:1079B000D8068FE0E806F10488F3E0916200F091C8
:1079C000630009955F9BECCF8CB1C15021F7CF913B
:1079D000FF90EF90DF90CF900895CF92DF92EF92DB
:1079E000FF92CF93C82FC12CD12C76015F9914C080
:1079F0008FEFC81AD80AE80AF80A81E4C81682E4A8
:107A0000D8068FE0E806F10488F3E0916200F09177
:107A1000630009955F9BECCF9CB1903269F0809137
:107A200064008F5F809364008530B9F0CF91FF9040
:107A3000EF90DF90CF9008955D9BFECF84E18CB9ED
:107A40005D9BFECFCCB95D9BFECF80E18CB9CF9121
:107A5000FF90EF90DF90CF900895E0916200F09159
:107A60006300CF91FF90EF90DF90CF900994CF9279
:107A7000DF92EF92FF92C12CD12C76015F9914C056
:107A80008FEFC81AD80AE80AF80A81E4C81682E417
:107A9000D8068FE0E806F10488F3E0916200F091E7
:107AA000630009955F9BECCF8CB1803261F08091CF
:107AB00064008F5F80936400853091F0FF90EF90B9
:107AC000DF90CF9008955D9BFECF84E18CB95D9BE4
:107AD000FECF80E18CB9FF90EF90DF90CF900895BA
:107AE000E0916200F0916300FF90EF90DF90CF9003
:107AF000099415C0C09A2FEF31EE94E02150304028
:107B00009040E1F700C00000C0982FEF31EE94E004
:107B1000215030409040E1F700C0000081508111B9
:107B2000E9CF08950000E0E0F0E0E49110BC83E3C9
:107B300089B988E18AB986E880BDB89AC09A2FEFE2
:107B400081EE94E0215080409040E1F700C00000B9
:107B5000C098EFEFF1EE24E0E150F0402040E1F773
:107B600000C00000412C512C320164E1C62E75E9A1
:107B7000272EE2E03E2EF0E1DF2E88248394A1E45C
:107B80009A2EB6E5AB2EC2E5BC2E5F9914C08FEFDE
:107B9000481A580A680A780A91E4491692E4590684
:107BA0009FE06906710488F3E0916200F091630040
:107BB00009955F9BECCF8CB18033A1F18133C1F18A
:107BC000803409F474C0813409F4AEC0823439F1D0
:107BD000853409F4D3C0982F9D7F903519F18135F4
:107BE00009F1853509F4D3C0863509F414C184360A
:107BF00009F490C1843709F491C2853709F454C35C
:107C0000863709F4B7C0809164008F5F8093640069
:107C1000853009F4FAC0412C512C3201B6CF84E1F1
:107C20000E94C33C0E94373D412C512C3201ADCF04
:107C3000412C512C32015F9914C0EFEF4E1A5E0AAD
:107C40006E0A7E0AF1E44F16F2E45F06FFE06F066B
:107C5000710488F3E0916200F091630009955F9BE5
:107C6000ECCF8CB1803279F65D9BFECFCCB85D9BBA
:107C7000FECF9CB85D9BFECFACB85D9BFECFBCB881
:107C80005D9BFECF80E28CB95D9BFECF89E48CB911
:107C90005D9BFECF83E58CB95D9BFECF80E58CB903
:107CA0005D9BFECFDCB8412C512C32016ECF412CB4
:107CB000512C32015F9914C02FEF421A520A620A06
:107CC000720A81E4481682E458068FE0680671045F
:107CD00088F3E0916200F091630009955F9BECCF1F
:107CE0008CB1863808F49ECF412C512C32015F991B
:107CF00014C09FEF491A590A690A790AE1E44E163D
:107D0000E2E45E06EFE06E06710488F3E091620043
:107D1000F091630009955F9BECCF8CB10E94373DD9
:107D2000412C512C320131CF412C512C32015F9921
:107D300014C0FFEF4F1A5F0A6F0A7F0A21E4421650
:107D400022E452062FE06206710488F3E09162009B
:107D5000F091630009955F9BECCF8CB1803809F4FA
:107D6000CBC0813809F4C1C1823809F4CCC188394B
:107D700009F4C9C080E00E94ED3C4DCF85E00E942F
:107D8000C33C0E94373D412C512C3201FECE412C88
:107D9000512C32015F9914C08FEF481A580A680AB3
:107DA000780A91E4491692E459069FE06906710445
:107DB00088F3E0916200F091630009955F9BECCF3E
:107DC0008CB180936600412C512C32015F9914C014
:107DD000EFEF4E1A5E0A6E0A7E0AF1E44F16F2E4E5
:107DE0005F06FFE06F06710488F3E0916200F09196
:107DF000630009955F9BECCF8CB1809367000E9474
:107E0000373D412C512C3201C0CEE0916200F091FF
:107E10006300099500CF412C512C32015F9914C0A9
:107E20002FEF421A520A620A720A81E4481682E46B
:107E300058068FE06806710488F3E0916200F091C3
:107E4000630009955F9BECCF8CB1803309F062C170
:107E5000412C512C32015F9914C09FEF491A590AE5
:107E6000690A790AE1E44E16E2E45E06EFE06E0686
:107E7000710488F3E0916200F091630009955F9BC3
:107E8000ECCF8CB1412C512C32015F9914C0FFEF23
:107E90004F1A5F0A6F0A7F0A21E4421622E4520653
:107EA0002FE06206710488F3E0916200F0916300B4
:107EB00009955F9BECCF1CB1412C512C32015F998D
:107EC00014C08FEF481A580A680A780A91E44916D4
:107ED00092E459069FE06906710488F3E09162001C
:107EE000F091630009955F9BECCF8CB1112309F4ED
:107EF00012C2113009F400C182E00E94ED3C412C15
:107F0000512C320142CE83E00E94ED3C412C512C99
:107F100032013BCE412C512C32015F9914C0EFEF5E
:107F20004E1A5E0A6E0A7E0AF1E44F16F2E45F060C
:107F3000FFE06F06710488F3E0916200F091630046
:107F400009955F9BECCF8CB180936901412C512C3A
:107F500032015F9914C02FEF421A520A620A720A64
:107F600081E4481682E458068FE06806710488F3BD
:107F7000E0916200F091630009955F9BECCF8CB1BA
:107F80008093680180916C018E7F80936C01412CFD
:107F9000512C32015F9914C09FEF491A590A690A9E
:107FA000790AE1E44E16E2E45E06EFE06E06710443
:107FB00088F3E0916200F091630009955F9BECCF3C
:107FC0008CB1853429F480916C01816080936C01BF
:107FD0008091680190916901892B61F158E6E52E45
:107FE00050E0F52E00E010E0412C512C32015F9959
:107FF00014C0FFEF4F1A5F0A6F0A7F0A21E442168E
:1080000022E452062FE06206710488F3E0916200D8
:10801000F091630009955F9BECCF8CB1F7018193E0
:108020007F010F5F1F4F80916801909169010817D0
:108030001907D0F2412C512C32015F9914C0FFEF87
:108040004F1A5F0A6F0A7F0A21E4421622E45206A1
:108050002FE06206710488F3E0916200F091630002
:1080600009955F9BECCF8CB1803209F0CCCD80912B
:108070006C0180FF57C12091660030916700220F8C
:10808000331F3093670020936600809168019091C0
:108090006901892B01F108E610E0C901E12CF12CFE
:1080A00001C0C901F80161918F010E94074220912E
:1080B0006600309167002F5F3F4F30936700209339
:1080C0006600FFEFEF1AFF0A809168019091690145
:1080D000E816F90630F35D9BFECFCCB85D9BFECF72
:1080E000DCB8412C512C320150CD81E00E94ED3C96
:1080F000412C512C320149CD85E90E94ED3C412CA7
:10810000512C320142CD80E10E94ED3C412C512C9A
:1081100032013BCD83E00E94C33C2CCE412C512C3C
:1081200032015F9914C02FEF421A520A620A720A92
:1081300081E4481682E458068FE06806710488F3EB
:10814000E0916200F091630009955F9BECCF8CB1E8
:1081500080936901412C512C32015F9914C09FEF2B
:10816000491A590A690A790AE1E44E16E2E45E0600
:10817000EFE06E06710488F3E0916200F091630015
:1081800009955F9BECCF8CB180936801809166006C
:1081900090916700880F991F909367008093660005
:1081A000412C512C32015F9914C0FFEF4F1A5F0A26
:1081B0006F0A7F0A21E4421622E452062FE062068B
:1081C000710488F3E0916200F091630009955F9B70
:1081D000ECCF8CB1853409F498C080916C018E7F0E
:1081E00080936C01412C512C32015F9914C08FEFA8
:1081F000481A580A680A780A91E4491692E459061E
:108200009FE06906710488F3E0916200F0916300D9
:1082100009955F9BECCF8CB1803209F0FCCC5D9B63
:10822000FECFCCB82091680130916901211531054C
:1082300009F100E010E080916600909167004091A4
:108240006C0140FF1CC00E94FF415D9BFECF8CB9BA
:1082500080916600909167000196909367008093EB
:10826000660020916801309169010F5F1F4F02176E
:10827000130728F35D9916CD5D9BFCCF13CD41FD0F
:108280000DC0FC0184915D9BFECF8CB920916801EB
:1082900030916901809166009091670001969093FA
:1082A000670080936600E1CF412C512C32015F9929
:1082B00014C0FFEF4F1A5F0A6F0A7F0A21E44216CB
:1082C00022E452062FE06206710488F3E091620016
:1082D000F091630009955F9BECCF8CB1803209F07F
:1082E00092CC5D9BFECFCCB85D9BFECF8EE18CB96E
:1082F0005D9BFECF2CB85D9BFECF3CB85D9BFECF57
:10830000DCB8412C512C320140CC80916C01816051
:1083100080936C0167CF8EE10E94ED3C412C512C83
:10832000320133CC80916700880F880B88218093BD
:108330006B018091660090916700880F991F909360
:108340006700809366008091680180FF09C080917A
:108350006801909169010196909369018093680189
:10836000F894E199FECF1127E0916600F091670043
:10837000C8E6D0E08091680190916901103091F4D5
:108380000091570001700130D9F303E000935700CA
:10839000E8950091570001700130D9F301E1009395
:1083A0005700E8950990199000915700017001302D
:1083B000D9F301E000935700E8951395103498F035
:1083C00011270091570001700130D9F305E00093A7
:1083D0005700E8950091570001700130D9F301E191
:1083E00000935700E8953296029709F0C7CF1030F6
:1083F00011F00296E5CF11245D9B6DCE6ECEE19912
:10840000FECF9FBB8EBBE09A99278DB30895262F90
:10841000E199FECF9FBB8EBB2DBB0FB6F894E29ABD
:0C842000E19A0FBE01960895F894FFCF7A
:02842C008000CE
:040000030000780081
:00000001FF
