:107800000C942A3C0C94473C0C94473C0C94473C09
:107810000C94473C0C94473C0C94473C0C94473CDC
:107820000C94473C0C94473C0C94473C0C94473CCC
:107830000C94473C0C94473C0C94473C0C94473CBC
:107840000C94473C0C94473C0C94473C0C94473CAC
:107850000C94473C11241FBECFE5D8E0DEBFCDBF5E
:1078600010E0A0E6B0E0E0EAFEE702C005900D926D
:10787000A236B107D9F711E0A2E6B0E001C01D922F
:10788000AD36B107E1F70E94FD3C0C944E3F0C94DD
:10789000003C982F9595959595959595905D8F7051
:1078A0008A3044F0895A5D9BFECF9CB95D9BFECF28
:1078B0008CB90895805DF7CF5D9BFECF8CB908959C
:1078C000EF92FF920F931F93EE24FF2487015F999D
:1078D00015C00894E11CF11C011D111D81E2E81680
:1078E00081EAF80687E0080780E0180780F3E09156
:1078F0006400F091650009955F9BEBCF8CB11F91FF
:107900000F91FF90EF9008950E94603C5D9BFECF29
:107910008CB9813624F480330CF080530895875558
:1079200008951F930E94843C182F0E94843C129556
:10793000107F810F1F9108951F93182F882321F026
:107940000E94603C1150E1F71F9108951F93182F7A
:107950000E94603C803249F0809163008F5F809389
:107960006300853079F01F9108955D9BFECF84E11F
:107970008CB95D9BFECF1CB95D9BFECF80E18CB9BD
:107980001F910895E0916400F091650009951F91A1
:1079900008950E94603C803241F0809163008F5FC7
:1079A00080936300853051F008955D9BFECF84E1A4
:1079B0008CB95D9BFECF80E18CB90895E0916400A5
:1079C000F09165000995089548EC50E08823A1F0F6
:1079D000C09A28EE33E0FA013197F1F72150304098
:1079E000D1F7C09828EE33E0FA013197F1F7215032
:1079F0003040D1F7815061F708952F923F924F9216
:107A00005F926F927F928F929F92AF92BF92CF922E
:107A1000DF92EF92FF920F931F93CF93DF930000BB
:107A200010BC89E189B988E18AB986E880BDB89A35
:107A300081E00E94E43C44E1E42E3EE1D32E25E9BE
:107A4000C22E92E0B92E80E1A82E9924939401E4ED
:107A5000802E16E5712EB2E56B2EA0E25A2EF9E4C7
:107A60004F2EE3E53E2E70E5272E0E94603C8033CA
:107A7000B1F18133B9F1803409F454C0813409F48F
:107A80005AC0823409F468C0853409F46BC080356B
:107A900031F1823521F1813511F1853509F468C064
:107AA000863509F470C0843609F489C0843709F436
:107AB000F1C0853709F457C1863709F449C0809170
:107AC00063008F5F80936300853079F6E0916400F6
:107AD000F091650009950E94603C803351F60E9448
:107AE000C93CC3CF0E94603C803249F75D9BFECF0A
:107AF000ECB85D9BFECF8CB85D9BFECF7CB85D9BE8
:107B0000FECF6CB85D9BFECF5CB85D9BFECF4CB8E2
:107B10005D9BFECF3CB85D9BFECF2CB85D9BFECF3E
:107B2000ACB8A3CF0E94603C8638C8F20E94603C8B
:107B30000E94C93C9ACF0E94603C8038E1F18138B4
:107B400009F40DC1823809F423C1883909F49EC0B3
:107B500080E00E94A63C89CF84E10E949C3C0E9468
:107B6000C93C83CF85E00E949C3C0E94C93C7DCFEC
:107B70000E94603C809366000E94603C8093670096
:107B80000E94C93C72CF0E94603C803339F083E090
:107B90000E949C3C80E00E94A63C67CF0E94603C13
:107BA0000E94603C182F0E94603C112309F472C1AE
:107BB000113009F4F1C082E00E94A63C56CF0E9429
:107BC000603C809369010E94603C809368018091D1
:107BD0006C018E7F80936C010E94603C853409F4B7
:107BE000DFC08091680190916901892B89F000E0E4
:107BF00010E00E94603CF801E859FF4F80830F5F5E
:107C00001F4F80916801909169010817190788F347
:107C10000E94603C803209F052CF80916C0180FF5D
:107C2000CBC04091660050916700440F551F5093A0
:107C30006700409366006091680170916901611569
:107C40007105E9F080E090E09A01280F391FFC01EE
:107C5000E859FF4FE081E199FECF3FBB2EBBEDBB62
:107C60000FB6F894E29AE19A0FBE0196861797072D
:107C700058F3460F571F50936700409366005D9B73
:107C8000FECFECB85D9BFECFACB8EFCE83E00E9498
:107C9000A63CEBCE0E94603C809369010E94603C50
:107CA000809368018091660090916700880F991F0A
:107CB00090936700809366000E94603C853409F4CD
:107CC00075C080916C018E7F80936C010E94603C36
:107CD000803209F0CACE5D9BFECFECB800916801FE
:107CE000109169010115110509F434C080916C01EE
:107CF000FF24F394F82286958170E0916600F0915C
:107D00006700BF016F5F7F4FDB0140E050E0FF2065
:107D1000A1F4882321F494915D9BFECF9CB94F5F21
:107D20005F4F9D012F5F3F4FFB014017510770F4DC
:107D3000D9016F5F7F4FFF2061F3E199FECFFFBB59
:107D4000EEBBE09A9DB35D9BFECFE8CFB09367009A
:107D5000A09366005D99E4CE5D9BFCCFE1CE81E00F
:107D60000E94A63C82CE0E94603C803209F0A7CEE1
:107D70005D9BFECFECB85D9BFECFDCB85D9BFECF7C
:107D8000CCB85D9BFECFBCB85D9BFECFACB86DCED2
:107D900080E10E94A63C69CE85E90E94A63C65CEA2
:107DA00080916C01816080936C011BCF80916C018C
:107DB000816080936C018ACF809167008823880F4F
:107DC000880B892180936B018091660090916700F8
:107DD000880F991F909367008093660080916801D7
:107DE00080FF09C08091680190916901019690938C
:107DF000690180936801F894E199FECF1127E09121
:107E00006600F0916700C8E6D0E08091680190912B
:107E10006901103091F40091570001700130D9F3DD
:107E200003E000935700E89500915700017001307E
:107E3000D9F301E100935700E8950990199000915A
:107E4000570001700130D9F301E000935700E89525
:107E50001395103498F011270091570001700130EC
:107E6000D9F305E000935700E895009157000170A1
:107E70000130D9F301E100935700E895329602975B
:107E800009F0C7CF103011F00296E5CF11245D9BA9
:107E9000F6CEF7CE8EE10E94A63CE7CDF894FFCF58
:027EA000800060
:040000030000780081
:00000001FF
