:103800000C94341C0C94511C0C94511C0C94511CA1
:103810000C94511C0C94511C0C94511C0C94511C74
:103820000C94511C0C94511C0C94511C0C94511C64
:103830000C94511C0C94511C0C94511C0C94511C54
:103840000C94511C0C94511C0C94511C0C94511C44
:103850000C94511C0C94511C0C94511C0C94511C34
:103860000C94511C0C94511C11241FBECFEFD4E0BA
:10387000DEBFCDBF11E0A0E0B1E0E6EFF5E402C0AD
:1038800005900D92A230B107D9F722E0A2E0B1E095
:1038900001C01D92AD30B207E1F70E94D01D0C941B
:1038A000F9220C94001CCF92DF92EF92FF92C12C70
:1038B000D12C76018091C00087FD16C08FEFC81A09
:1038C000D80AE80AF80A81E0C81682E1D8068AE731
:1038D000E806F10478F3E0910201F0910301099503
:1038E0008091C00087FFEACF2091C600822F90917F
:1038F000C00095FFFCCF2093C60021364CF4203346
:1039000014F080ED820FFF90EF90DF90CF9008953C
:1039100089EA820FFF90EF90DF90CF900895CF93C8
:103920000E94531CC82F0E94531C90E1C99F800D18
:103930001124CF910895282F259525952595259516
:10394000205D8F708A3074F0895A9091C00095FF85
:10395000FCCF2093C6009091C00095FFFCCF8093D0
:10396000C6000895805DF1CF9091C00095FFFCCF17
:103970008093C6000895CF92DF92EF92FF92C12C00
:10398000D12C76018091C00087FD16C08FEFC81A38
:10399000D80AE80AF80A81E0C81682E1D8068AE760
:1039A000E806F10478F3E0910201F0910301099532
:1039B0008091C00087FFEACF8091C600FF90EF9012
:1039C000DF90CF900895CF92DF92EF92FF92CF9346
:1039D000882311F1C82FC12CD12C76019091C00001
:1039E00097FD16C08FEFC81AD80AE80AF80A81E0D6
:1039F000C81682E1D8068AE7E806F10478F3E09178
:103A00000201F091030109959091C00097FFEACF60
:103A10008091C600C150F9F6CF91FF90EF90DF90F2
:103A2000CF900895CF92DF92EF92FF92CF93C82F5D
:103A3000C12CD12C76019091C00097FD16C08FEF5C
:103A4000C81AD80AE80AF80A81E0C81682E1D8063E
:103A50008AE7E806F10478F3E0910201F0910301AE
:103A600009959091C00097FFEACF9091C6009032DF
:103A700069F0809104018F5F80930401853001F12A
:103A8000CF91FF90EF90DF90CF9008959091C0007C
:103A900095FFFCCF84E18093C6009091C00095FF14
:103AA000FCCFC093C6008091C00085FFFCCF80E1B1
:103AB0008093C600CF91FF90EF90DF90CF90089554
:103AC000E0910201F0910301CF91FF90EF90DF9020
:103AD000CF900994CF92DF92EF92FF92C12CD12C1C
:103AE00076018091C00087FD16C08FEFC81AD80AF2
:103AF000E80AF80A81E0C81682E1D8068AE7E806F3
:103B0000F10478F3E0910201F091030109958091AD
:103B1000C00087FFEACF8091C600803261F08091BB
:103B200004018F5F809304018530C1F0FF90EF9016
:103B3000DF90CF9008958091C00085FFFCCF84E195
:103B40008093C6008091C00085FFFCCF80E1809308
:103B5000C600FF90EF90DF90CF900895E0910201B2
:103B6000F0910301FF90EF90DF90CF90099415C082
:103B70002D9A2FEF31EE94E0215030409040E1F744
:103B800000C000002D982FEF31EE94E0215030401E
:103B90009040E1F700C0000081508111E9CF089505
:103BA0000000E0E0F0E0E49183E38093C400109231
:103BB000C50088E18093C10086E08093C2005098E0
:103BC000589A259A83E02D9A2FEF31EE94E02150F8
:103BD00030409040E1F700C000002D98EFEFF1EE8B
:103BE00024E0E150F0402040E1F700C000008150A7
:103BF00051F7412C512C320164E1C62E74E9272E75
:103C0000E6E03E2EF0E1DF2E88248394A1E49A2E94
:103C1000B6E5AB2EC2E5BC2E8091C00087FD16C074
:103C20003FEF431A530A630A730A81E0481682E1A0
:103C300058068AE76806710478F3E0910201F09172
:103C4000030109958091C00087FFEACF8091C600EB
:103C50008033A1F18133C1F1803409F491C0813402
:103C600009F4D5C0823439F1853409F4FFC0982FA6
:103C70009D7F903519F1813509F1853509F4FFC033
:103C8000863509F44DC1843609F4DDC1843709F461
:103C9000F8C2853709F4E8C3863709F4E3C0809198
:103CA00004018F5F80930401853009F430C1412CF9
:103CB000512C3201B1CF84E10E94E31C0E946A1DA5
:103CC000412C512C3201A8CF412C512C3201809132
:103CD000C00087FD16C09FEF491A590A690A790A80
:103CE000E1E04E16E2E15E06EAE76E06710478F363
:103CF000E0910201F091030109958091C00087FFD6
:103D0000EACF8091C600803251F68091C00085FFD5
:103D1000FCCFC092C6008091C00085FFFCCF90927E
:103D2000C6008091C00085FFFCCFA092C6008091A4
:103D3000C00085FFFCCFB092C6008091C00085FF17
:103D4000FCCF80E28093C6008091C00085FFFCCF4D
:103D500089E48093C6008091C00085FFFCCF83E595
:103D60008093C6008091C00085FFFCCF80E58093E2
:103D7000C6008091C00085FFFCCFD092C60097CFCF
:103D8000412C512C32018091C00087FD16C0FFEFFD
:103D90004F1A5F0A6F0A7F0A21E0421622E152069B
:103DA0002AE76206710478F3E0910201F0910301C1
:103DB00009958091C00087FFEACF8091C6008638C0
:103DC00008F47CCF412C512C32018091C00087FD3A
:103DD00016C03FEF431A530A630A730A81E048167C
:103DE00082E158068AE76806710478F3E0910201DF
:103DF000F091030109958091C00087FFEACF80917F
:103E0000C6000E946A1D412C512C320105CF412C65
:103E1000512C32018091C00087FD16C09FEF491AD6
:103E2000590A690A790AE1E04E16E2E15E06EAE71C
:103E30006E06710478F3E0910201F0910301099597
:103E40008091C00087FFEACF8091C600803809F4D6
:103E5000FFC1813809F403C2823809F407C28839E6
:103E600009F4EAC080E00E94121D21CF85E00E9483
:103E7000E31C0E946A1D412C512C3201CDCE412CF5
:103E8000512C32018091C00087FD16C0FFEF4F1A00
:103E90005F0A6F0A7F0A21E0421622E152062AE7F2
:103EA0006206710478F3E0910201F0910301099533
:103EB0008091C00087FFEACF8091C6008093060101
:103EC000412C512C32018091C00087FD16C03FEF7C
:103ED000431A530A630A730A81E0481682E15806BE
:103EE0008AE76806710478F3E0910201F09103011A
:103EF00009958091C00087FFEACF8091C60080932A
:103F000007010E946A1D412C512C320185CEE0919F
:103F10000201F09103010995412C512C32017CCE14
:103F2000412C512C32018091C00087FD16C09FEFBB
:103F3000491A590A690A790AE1E04E16E2E15E0679
:103F4000EAE76E06710478F3E0910201F091030153
:103F500009958091C00087FFEACF8091C600803329
:103F600009F08BC1412C512C32018091C00087FD9A
:103F700016C0FFEF4F1A5F0A6F0A7F0A21E0421650
:103F800022E152062AE76206710478F3E091020109
:103F9000F091030109958091C00087FFEACF8091DD
:103FA000C600412C512C32018091C00087FD16C003
:103FB0003FEF431A530A630A730A81E0481682E10D
:103FC00058068AE76806710478F3E0910201F091DF
:103FD000030109958091C00087FFEACF1091C600C8
:103FE000412C512C32018091C00087FD16C09FEFFB
:103FF000491A590A690A790AE1E04E16E2E15E06B9
:10400000EAE76E06710478F3E0910201F091030192
:1040100009958091C00087FFEACF8091C6001123E7
:1040200009F46AC2113009F4DDC286E00E94121D53
:10403000412C512C3201F0CD83E00E94121D412C05
:10404000512C3201E9CD412C512C32018091C0001C
:1040500087FD16C0FFEF4F1A5F0A6F0A7F0A21E043
:10406000421622E152062AE76206710478F3E091D3
:104070000201F091030109958091C00087FFEACF0A
:104080008091C60080930902412C512C320180910D
:10409000C00087FD16C03FEF431A530A630A730A34
:1040A00081E0481682E158068AE76806710478F3D1
:1040B000E0910201F091030109958091C00087FF12
:1040C000EACF8091C6008093080280910C028E7F17
:1040D00080930C02412C512C32018091C00087FD4D
:1040E00016C09FEF491A590A690A790AE1E04E168B
:1040F000E2E15E06EAE76E06710478F3E091020100
:10410000F091030109958091C00087FFEACF80916B
:10411000C600853429F480910C02816080930C02E2
:104120008091080290910902892B89F158E0E52ECF
:1041300051E0F52E00E010E0412C512C320180912D
:10414000C00087FD16C0FFEF4F1A5F0A6F0A7F0A93
:1041500021E0421622E152062AE76206710478F352
:10416000E0910201F091030109958091C00087FF61
:10417000EACF8091C600F70181937F010F5F1F4F47
:10418000809108029091090208171907A8F2412CA2
:10419000512C32018091C00087FD16C0FFEF4F1AED
:1041A0005F0A6F0A7F0A21E0421622E152062AE7DF
:1041B0006206710478F3E0910201F0910301099520
:1041C0008091C00087FFEACF8091C600803209F05D
:1041D00066CD80910C0280FF96C18091060190917E
:1041E0000701880F991F9093070180930601209182
:1041F000080230910902232BF1F0E8E0F1E020E021
:1042000030E0F999FECF92BD81BD819180BDFA9ACF
:10421000F99A809106019091070101969093070108
:10422000809306012F5F3F4F409108025091090291
:104230002417350730F38091C00085FFFCCFC09272
:10424000C6008091C00085FFFCCFD092C6002FCD64
:1042500082E00E94121D412C512C3201DDCC81E004
:104260000E94121D412C512C3201D6CC80E10E94BB
:10427000121D412C512C3201CFCC83E00E94E31C53
:10428000F1CD412C512C32018091C00087FD16C028
:104290003FEF431A530A630A730A81E0481682E12A
:1042A00058068AE76806710478F3E0910201F091FC
:1042B000030109958091C00087FFEACF8091C60075
:1042C00080930902412C512C32018091C00087FD5E
:1042D00016C09FEF491A590A690A790AE1E04E1699
:1042E000E2E15E06EAE76E06710478F3E09102010E
:1042F000F091030109958091C00087FFEACF80917A
:10430000C600809308028091060190910701880FF2
:10431000991F9093070180930601412C512C320183
:104320008091C00087FD16C0FFEF4F1A5F0A6F0A29
:104330007F0A21E0421622E152062AE76206710452
:1043400078F3E0910201F091030109958091C0009A
:1043500087FFEACF8091C600853409F4C7C08091F9
:104360000C028E7F80930C02412C512C32018091E3
:10437000C00087FD16C03FEF431A530A630A730A51
:1043800081E0481682E158068AE76806710478F3EE
:10439000E0910201F091030109958091C00087FF2F
:1043A000EACF8091C600803209F081CC8091C000B4
:1043B00085FFFCCFC092C60080910802909109024F
:1043C000009729F120E030E0E0910601F09107012B
:1043D00040910C0240FD24C041FD0FC0E49180914A
:1043E000C00085FFFCCFE093C60080910802909149
:1043F0000902E0910601F09107013196F09307015F
:10440000E09306012F5F3F4F2817390708F380918B
:10441000C00085FDB2CC8091C00085FFF8CFADCC47
:10442000F999FECFF2BDE1BDF89A90B58091C00038
:1044300085FFFCCF9093C600E0910601F091070143
:104440003196F0930701E093060180910802909164
:1044500009022F5F3F4F2817390708F4B9CF809121
:10446000C00085FFD8CF89CC412C512C32018091DE
:10447000C00087FD16C09FEF491A590A690A790AD8
:10448000E1E04E16E2E15E06EAE76E06710478F3BB
:10449000E0910201F091030109958091C00087FF2E
:1044A000EACF8091C600803209F0F9CB8091C0003C
:1044B00085FFFCCFC092C6008091C00085FFFCCF75
:1044C000FEE1F093C6008091C00085FFFCCF2092F2
:1044D000C6008091C00085FFFCCF3092C60080915D
:1044E000C00085FFFCCFD092C600E1CB80910C02CA
:1044F000816080930C0238CF8EE10E94121D412C06
:10450000512C320189CB80910701880F880B8821BB
:1045100080930B028091060190910701880F991FEB
:1045200090930701809306018091080280FF09C0E3
:10453000809108029091090201969093090280935C
:104540000802F894F999FECF1127E0910601F09145
:104550000701C8E0D1E08091080290910902103073
:1045600091F40091570001700130D9F303E00093FA
:104570005700E8950091570001700130D9F301E12F
:1045800000935700E8950990199000915700017029
:104590000130D9F301E000935700E89513951034EA
:1045A00098F011270091570001700130D9F305E010
:1045B00000935700E8950091570001700130D9F33E
:1045C00001E100935700E8953296029709F0C7CFB2
:1045D000103011F00296E5CF11248091C00085FFC4
:1045E0002ACE2DCE84E90E94121D412C512C32017D
:0645F00013CBF894FFCF8D
:0245F600800043
:0400000300003800C1
:00000001FF
