:100000000C9453000C94CA010C9470000C94700072
:100010000C9470000C9470000C9470000C947000A0
:100020000C9470000C9470000C9470000C94700090
:100030000C9470000C9470000C9470000C94700080
:100040000C9470000C9470000C9470000C94700070
:100050000C947000090212000101008019090400CB
:1000600000000000000012011001FF000008C0168F
:10007000DC050401010200010E035500530042009B
:100080006100730070001C037700770077002E007A
:10009000660069007300630068006C002E00640055
:1000A00065000403090411241FBECFE5D8E0DEBFBC
:1000B000CDBF10E0A0E6B0E0EAE4F2E102C00590B6
:1000C0000D92A436B107D9F720E0A4E6B0E001C054
:1000D0001D92AA3AB207E1F70E948B080C94A4087B
:1000E0000C9400000F931F93CF93DF9360917300E4
:1000F000635067FF3AC08091610084FF04C0909113
:1001000060009F3F69F494E102C09A9529F186B39B
:1001100083708115D1F3DF91CF911F910F910895D5
:10012000C92F993008F063C0892F8C1B8093600021
:100130002091660088E8282720936600911128C046
:1001400060E087E690E00E94C60184E09FEF909314
:10015000600080936100D7CF1092750010927600F6
:10016000DF91CF911F910F91089520917700CCE0FE
:10017000D0E0C21BD109C858DF4F809171008D3289
:10018000C1F180918E0087FD52C010927300B3CFF1
:1001900080918E0087FD7CC0409164005091650085
:1001A00086FF50C00FEF0C0F10E0BA016C0F711DED
:1001B000FA0127E630E08491D9018C932F5F3F4FFD
:1001C0003196E617F707B9F74F5F5F4F400F511FA2
:1001D00050936500409364006C2F87E690E00E9486
:1001E000C60184E08C0FC83009F0B0CFB2CFC8E0B0
:1001F0009BCF683051F683EC809366008AE580934C
:10020000610010928E0088818076811569F1CE019F
:100210000E94D1058F3F09F458C09F81911104C0FD
:100220009E81981708F4892F80936000AECFCE018D
:100230000E94A8078F3F41F1811509F4A6CF1092C3
:100240006000A3CFE7E6F0E00FEF0C0F10E0BA017B
:100250006C0F711D9A01D9012F5F3F4F8C918193D3
:1002600026173707C1F7B0CF2A8110926F00998106
:1002700091111CC0109270002FE630E082E03093A4
:10028000650020936400C9CF8EE1809361007DCF2B
:100290006C2F87E690E00E943B07C82F893008F456
:1002A0009BCF8FEF809360008EE153CF9530A1F00C
:1002B0009630E1F0983099F09930A9F081E09A30C9
:1002C00009F080E02FE630E0DACF988197FD8E814B
:1002D00090E890938E00A8CF20937500F3CF24E789
:1002E00030E081E0CCCF20937400ECCF9B81913043
:1002F00041F09230E1F0933061F090E490938E0001
:100300008CCF86E690E0909365008093640082E154
:10031000F4CF2115B9F0213069F0223071F788E768
:1003200090E090936500809364008EE0E6CF84E5D2
:1003300090E0E9CF86E890E09093650080936400B8
:100340008CE1DBCF82EA90E09093650080936400BB
:1003500084E0D3CF85B7836085BF8BB780648BBFC4
:100360000895A82FB92F80E090E041E050EA609511
:1003700030E009C02D9182279795879510F084274A
:100380009527305EC8F36F5FA8F30895EADF8D9379
:100390009D930895CF93CFB7CF93C395B09BE9F7C3
:1003A000B09B09C0B09B07C0B09B05C0B09B03C009
:1003B000B09B01C0A1C0DF93C0917700DD27C85872
:1003C000DF4FB09B02C0DF91EBCF2F930F931F93B2
:1003D00006B32FEF00FB20F94F933F9316B34FEF77
:1003E000012700FB21F93BE031C04E7F012F16B3FE
:1003F000216028C0102F4D7F2260000006B329C065
:100400004B7F2460012F000016B32BC016B3477F2B
:1004100028602AC04F7E06B320612CC04F7D16B3E2
:1004200020622FC04F7B06B3206432C0422706B340
:1004300049934FEF0000102710FB20F916B31370FB
:10044000C9F1297F91F2012700FB21F906B3237F2F
:1004500089F2315058F1102710FB22F916B3277E8C
:1004600079F2012700FB23F92F7C81F206B31027D4
:1004700010FB24F92F7971F200C016B3012700FB9D
:1004800025F92F7359F200C006B3102710FB26F987
:10049000223040F200C016B3012700FB27F92430B8
:1004A00028F64F77206816B30000F9CF10E41ABF82
:1004B000002717C03B503195C31BD04010E41ABF32
:1004C0000881033CE9F00B34D9F0209176001981C2
:1004D000110F1213EDCF093641F10D3211F0013E2B
:1004E00039F7009372003F914F911F910F912F9117
:1004F000DF91CAB7C6FD51CFCF91CFBFCF9118952D
:1005000020917200222379F310917300112311F5C9
:10051000343012F130937300209371001091770002
:100520003BE0311B3093770017C00091730001301E
:100530008CF40AE53091610034FD10C00093610035
:10054000C6E6D0E00FC02795A8F45150A9F4220FB9
:100550000000F9CF4AE503C042ED01C0432FC4E1DA
:10056000D0E032E017B31360C09A17BB08B320E4A1
:1005700013E05F93012756E008BB279520F4515004
:1005800021F4220FF9CF012756E000003B5A08BBA7
:10059000D0F2279528F4515029F4220F0000F9CF0A
:1005A000012756E0279508BB20F4515021F4220F73
:1005B000F9CF012756E02991332308BB21F60C7FA0
:1005C00010917500110FC651D04008BB11F0109367
:1005D000760010E41ABF016017B31C7F402F4C7FD8
:1005E0005F9100C000C008BB17BB48BB7CCF482F41
:1005F00058E080E047FD18C0C398440F880FB499B5
:100600008F5FC59A32B72091920092B7931B9217D1
:10061000E0F3C59832B72091920092B7931B9217DE
:10062000E0F35A9539F70895C39AE7CF8FB9779BCE
:10063000FECF8FB10895DC01CB0121E1B695A795DE
:10064000979587952A95D1F720918F002817D9F093
:1006500080938F00E0916200F09163008DE4099532
:10066000E0916200F091630080E00995E091620002
:10067000F091630080918F000995E0916200F09104
:10068000630080E009940895809191008DB9809174
:1006900090008EB90895811110C086E193E0909387
:1006A00063008093620081E08093920082E58093F2
:1006B000910081E08093900008958830A0F427EFA6
:1006C00032E03093630020936200853009F43FC02C
:1006D00040F58330C1F1843091F1823061F580E6DC
:1006E00080939200089526E133E0309363002093D5
:1006F00062001092900091E0909392008B3069F02C
:1007000040F48830A1F0893089F682E58093910029
:1007100008958C3059F69093900081E58093910074
:100720000895863049F083E080939200089583E530
:1007300080939100089580EC80939200089588E161
:1007400080939200089580E38093920008958CE056
:1007500080939200089522B79091920082B7821BF5
:100760008917E0F3089587B38C6287BBC298C59858
:1007700022B79091920082B7821B8917E0F3C29A48
:1007800022B79091920082B7821B8917E0F3C2983A
:1007900080916200909163008651934019F010920D
:1007A0008F000895809191008DB9809190008EB94D
:1007B00010928F00089587B3837D87BB88B3837DB4
:1007C00088BB1DB80895CF93DF93D0E2E09162001B
:1007D000F09163008CEA0995E0916200F09163006A
:1007E00083E50995E0916200F091630080E009954E
:1007F000C82FE0916200F091630080E00995C33555
:1008000061F11DB822B79091920082B7821B8917BF
:10081000E0F3C29A22B79091920082B7821B8917A7
:10082000E0F3C29822B79091920082B7821B891799
:10083000E0F380916200909163008651934031F023
:10084000DA9521F681E0DF91CF91089580919100B2
:100850008DB9809190008EB9F3CF80E0DF91CF9178
:100860000895CF92DF92EF92FF926B017C01C70156
:10087000B6010E941B03C0FA882783F9E091620049
:10088000F091630080620995D701C60129E0B69511
:10089000A795979587952A95D1F7E0916200F091F9
:1008A00063000995D701C601B695A79597958795D9
:1008B000E0916200F09163000995E0916200F0918F
:1008C000630080E0FF90EF90DF90CF900994CF928B
:1008D000DF92EF92FF92CF93DF936B017C01C42FE5
:1008E000D22FC701B6010E941B03C0FA882783F9E3
:1008F000E0916200F091630080640995D701C60120
:1009000029E0B695A795979587952A95D1F7E09117
:100910006200F09163000995D701C601B695A795CD
:1009200097958795E0916200F09163000995E091B9
:100930006200F09163008C2F0995D115E1F0CF375B
:10094000B9F0C2B7DEE1C701B6010E9431048F37AA
:1009500091F482B78C1B8D33B0F3C2B7DA9599F757
:1009600081E0DF91CF91FF90EF90DF90CF900895DD
:100970008FE00E945C0580E0DF91CF91FF90EF90C7
:10098000DF90CF900895CF92DF92EF92FF92CF93B6
:10099000DF936B017C01C42FC701B6010E941B03CA
:1009A000E0916200F09163008CE40995D701C601E3
:1009B00029E0B695A795979587952A95D1F7E09167
:1009C0006200F09163000995D701C601B695A7951D
:1009D00097958795E0916200F09163000995E09109
:1009E0006200F091630080E00995CF3FB9F0C2B793
:1009F000DEE1C701B6010E9431048F3F91F482B756
:100A00008C1B8D33B0F3C2B7DA9599F781E0DF9193
:100A1000CF91FF90EF90DF90CF9008958FE00E94EC
:100A20005C0580E0DF91CF91FF90EF90DF90CF9059
:100A30000895CF93DF93EC01E0916200F0916300A1
:100A400080EA0995E0916200F09163008D2F09958D
:100A5000E0916200F09163008C2F0995E0916200B3
:100A6000F091630080E0DF91CF9109941F93CF93C1
:100A7000DF93D82F192FC62FE0916200F091630009
:100A800080EC0995E0916200F0916300812F099557
:100A9000E0916200F09163008D2F0995E091620072
:100AA000F09163008C2F09958EE10E945C0580E037
:100AB000DF91CF911F910895811549F030E022B761
:100AC00092B7921B9C33E0F33F5F8313F8CF0895F6
:100AD000BD9ABB98C39A50E217D05A95E9F708958A
:100AE000AC0188E605D0842F03D089E601D0852F9C
:100AF0000FD028E030E0382780FB869506D02A9575
:100B0000D1F730FB02D000D06894BB98C39A16F09E
:100B1000C398BB9AE091A800F091A9003197F0F733
:100B2000C59AE6B3E3FBE091A800F091A9003197E4
:100B3000F0F7C598089520ECE7DF46F42A95E1F731
:100B400080E02AE1E5DF2A95E9F7DECF28E030E012
:100B5000DBDF869587F938272A95D1F7D5DF27F986
:100B6000322772F3D1DFD0CFDB01742FB9DF84E2FB
:100B7000BFDFE1DF8D937A95D1F70895DB01742F04
:100B8000AFDF83EFB5DF8DE1B3DF84E6B1DF8D91B9
:100B9000AFDF82E7ADDFCFDF8078D9F77A9589F7CD
:100BA0000895CF93DF93EC01E981E150EF3780F4B2
:100BB000F0E0EA55F74F0C949E089A9B58C180913B
:100BC0009E000E944B0310929D00A9980E94B303BF
:100BD00080E020EA30E03093650020936400DF91EC
:100BE000CF91089581E08093A0001092A10010920F
:100BF000A2001092A30084E0ECCF0E94DB03A99A2C
:100C0000E7CFE0916200F09163008A8109958093BB
:100C1000A000E0916200F09163008B8109958093C0
:100C2000A100E0916200F09163008C8109958093AE
:100C3000A200E0916200F09163008D81099580939C
:100C4000A30084E0C6CF80919D0081110EC08A81EF
:100C50009B81092E000CAA0BBB0B809399009093EB
:100C60009A00A0939B00B0939C008E819F819093EB
:100C700098008093970082E080939F008FEFA9CF28
:100C80000E94E3038093A00081E0A3CF80919D00A8
:100C900081110EC08A819B81092E000CAA0BBB0B0F
:100CA0008093990090939A00A0939B00B0939C002E
:100CB0003C812D81822F8F708093940040E1249F8E
:100CC000C001112488279F70830F911D9093960077
:100CD0008093950020FD809393008E819F81909357
:100CE00098008093970081E080939F008FEF71CFF1
:100CF00080919D0081110EC08A819B81092E000C7C
:100D0000AA0BBB0B8093990090939A00A0939B0031
:100D1000B0939C008E819F81909398008093970060
:100D200083E080939F008FEF54CF80919D008111CD
:100D30000EC08A819B81092E000CAA0BBB0B8093ED
:100D4000990090939A00A0939B00B0939C001092FE
:100D5000960010929500109294008E819F8190933E
:100D600098008093970084E080939F008FEF31CFAD
:100D700081E080939D008A819B81AC81BD818093BD
:100D8000990090939A00A0939B00B0939C0020CF71
:100D90008A8180939E001092A00081E01ACF8A8100
:100DA0009B819093A9008093A800C29ABA9A83E08D
:100DB0000E945C05C298A99880E10E945C050E948F
:100DC000680506CF80EC0E94780580E00E947805D7
:100DD0008AE00E945C05C29A85E00E945C05C29888
:100DE00085E00E945C0587B3837D87BB88B3837DE4
:100DF00088BBA99AEDCE0E949B058093A00081E05C
:100E0000E8CE8A810E947805E3CE8A819B81092EF3
:100E1000000CAA0BBB0B8093990090939A00A093AF
:100E20009B00B0939C008E819F819093980080934B
:100E3000970085E080939F008FEFCBCE8A819B81C6
:100E4000092E000CAA0BBB0B8093990090939A007B
:100E5000A0939B00B0939C008E819F8190939800FB
:100E60008093970086E080939F008FEFB2CE85E05D
:100E70000E944B03A8CEFF920F931F93CF93DF9353
:100E8000382F792FF62E20919F008EEF820F82301F
:100E900030F18FEF2530E9F4462F632F80919900D0
:100EA00090919A000E94B4058091990090919A00C7
:100EB000A0919B00B0919C008F0D911DA11DB11DB3
:100EC0008093990090939A00A0939B00B0939C000C
:100ED0008F2DDF91CF911F910F91FF900895611594
:100EE00099F18091990090919A00A0919B00B09106
:100EF0009C00C32FD72F8E01060F111D1BC00E940F
:100F0000190589938091990090919A00A0919B0076
:100F1000B0919C000196A11DB11D80939900909302
:100F20009A00A0939B00B0939C000C171D0749F0FA
:100F300020919F00223019F7BC01CD010E9431049D
:100F4000E0CF88E0F81620F610929F008F2DC1CFD9
:100F5000FF920F931F93CF93DF93382F792F062F94
:100F600020919F00273008F098C082E5022E01C032
:100F700086950A94EAF780FF90C0263009F496C05F
:100F8000611509F4C0C08091990090919A00A091D8
:100F90009B00B0919C00C32FD72F0C0F1D2F111D4C
:100FA000F12C1BC06091990070919A0080919B0078
:100FB00090919C00DC01CB010196A11DB11D809395
:100FC000990090939A00A0939B00B0939C00C01747
:100FD000D10709F464C020919F0049912130E1F5C7
:100FE0002091950030919600232BD1F521E0BC0192
:100FF000CD010E946704809197009091980001971D
:101000009093980080939700892B61F660919900E6
:1010100070919A0080919B0090919C0010929F008B
:101020002091940021FF15C04091930020919500DC
:10103000309196004217130661F0FE0142910E9422
:10104000C3046091990070919A0080919B009091E7
:101050009C00FF24F394AECF642F0E943605CBCFC3
:1010600020E0BC01CD010E94670480919300815073
:10107000809393008111BFCF6091990070919A0085
:1010800080919B0090919C00FE0142910E94C304BC
:101090008091950080939300AECFFF24FA948F2D1A
:1010A000DF91CF911F910F91FF900895462F632FED
:1010B0008091990090919A000E94BE0580919900BC
:1010C00090919A00A0919B00B0919C00800F911D7F
:1010D000A11DB11D8093990090939A00A0939B004D
:1010E000B0939C008091970090919800801B91098B
:1010F0009093980080939700892B29F410929F0079
:10110000FF24F394CCCFF12C8F2DDF91CF911F9141
:101110000F91FF90089512BA18BA81B3837F81BBF3
:101120008FEF87BB17BA83E084BB9EEF95BB83BF6D
:101130000E94AA0178940E947200FDCFEE0FFF1F5B
:101140000590F491E02D0994F894FFCFDD05FD059D
:10115000010623064006460678069506B806C80628
:10116000CF06E206FB06010705071E07E805E805AE
:10117000E805E805E805E805E805E805E805E80507
:10118000E805E805E805E805E805E805E805E805F7
:10119000E805E805E805E805E805E805E805E805E7
:1011A000E805E805E805E805E805E805E805E805D7
:1011B000E805E805E805E805E805E805E805E805C7
:1011C000E805E805E805E805E805E805E805E805B7
:1011D000E805E805E805E805E805E805E805E805A7
:1011E000E805E805E805E805E805E805E805E80597
:1011F000E805E805E805E805E805E805E805E80587
:10120000E805E805E805E805E805E805E805E80576
:10121000E805E805E805E805E805E805E805E80566
:10122000E805E805E805E805E805E805E805E80556
:10123000E805E805E805E805E805E805E805E80546
:0A124000E805E805E805E805F205F9
:04124A00FF5A16032E
:00000001FF
