:1000000042C0B0C15BC05AC059C058C057C056C0EA
:1000100055C054C053C052C051C050C04FC04EC054
:100020004DC04CC04BC04AC049C048C047C046C084
:1000300045C044C0090212000101008019090400F2
:1000400000000000000012011001FF000008C016AF
:10005000DC050401010200010E03550053004200BB
:100060006100730070001C037700770077002E009A
:10007000660069007300630068006C002E00640075
:1000800065000403090411241FBECFEFD4E0DEBFD6
:10009000CDBF11E0A0E0B1E0ECECF1E102C00590D1
:1000A0000D92A430B107D9F721E0A4E0B1E001C07E
:1000B0001D92AA34B207E1F7F6D707C8A1CF0F9374
:1000C0001F93CF93DF9360911301635067FF39C093
:1000D0008091010184FF04C0909100019F3F69F469
:1000E00094E102C09A9521F183B183708115D1F317
:1000F000DF91CF911F910F910895C92F993008F08A
:1001000061C0892F8C1B809300012091060188E833
:10011000282720930601911127C060E087E091E035
:100120001DD184E09FEF9093000180930101D8CF0F
:100130001092150110921601DF91CF911F910F912E
:10014000089520911701CCE0D0E0C21BD109C85E10
:10015000DE4F809111018D32B9F180912E0187FD22
:1001600050C010921301B4CF80912E0187FD79C049
:10017000409104015091050186FF4DC00FEF0C0F17
:1001800010E0BA016C0F711DFA0127E031E0849193
:10019000D9018C932F5F3F4F3196E617F707B9F7D8
:1001A0004F5F5F4F400F511F509305014093040173
:1001B0006C2F87E091E0D2D084E08C0FC83009F03A
:1001C000B1CFB3CFC8E09DCF683059F683EC8093B0
:1001D00006018AE58093010110922E0188818076C4
:1001E000811559F1CE01BED48F3F09F456C09F81CD
:1001F000911104C09E81981708F4892F8093000103
:10020000B0CFCE0173D68F3F41F1811509F4A9CF4C
:1002100010920001A6CFE7E0F1E00FEF0C0F10E025
:10022000BA016C0F711D9A01D9012F5F3F4F8C915C
:10023000819326173707C1F7B3CF2A8110920F0198
:10024000998191111BC0109210012FE031E082E0E2
:100250003093050120930401CACF8EE18093010100
:1002600080CF6C2F87E091E0D7D5C82F893008F474
:100270009FCF8FEF809300018EE157CF9530A1F093
:100280009630E1F0983099F09930A9F081E09A30F9
:1002900009F080E02FE031E0DBCF988197FD8E817F
:1002A00090E890932E01AACF20931501F3CF24E17B
:1002B00031E081E0CDCF20931401ECCF9B819130D0
:1002C00041F09230E1F0933061F090E490932E0190
:1002D0008ECF86E490E0909305018093040182E143
:1002E000F4CF2115B9F0213069F0223071F788E59B
:1002F00090E090930501809304018EE0E6CF84E3C3
:1003000090E0E9CF86E690E09093050180930401A8
:100310008CE1DBCF82E890E09093050180930401AB
:1003200084E0D3CFE9E6F0E0808183608083E89ABF
:100330000895A82FB92F80E090E041E050EA609541
:1003400030E009C02D9182279795879510F084277A
:100350009527305EC8F36F5FA8F30895EADF8D93A9
:100360009D930895CF93CFB7CF93C395189BE9F78B
:10037000189B09C0189B07C0189B05C0189B03C099
:10038000189B01C0A1C0DF93C0911701DD27C85E93
:10039000DE4F189B02C0DF91EBCF2F930F931F937B
:1003A00003B12FEF00FB20F94F933F9313B14FEFB1
:1003B000012700FB21F93BE031C04E7F012F13B133
:1003C000216028C0102F4D7F2260000003B129C09A
:1003D0004B7F2460012F000013B12BC013B1477F66
:1003E00028602AC04F7E03B120612CC04F7D13B11D
:1003F00020622FC04F7B03B1206432C0422703B17B
:1004000049934FEF0000102710FB20F913B1137030
:10041000C9F1297F91F2012700FB21F903B1237F64
:1004200089F2315058F1102710FB22F913B1277EC1
:1004300079F2012700FB23F92F7C81F203B1102709
:1004400010FB24F92F7971F200C013B1012700FBD2
:1004500025F92F7359F200C003B1102710FB26F9BC
:10046000223040F200C013B1012700FB27F92430ED
:1004700028F64F77206813B10000F9CF11E01CBBBC
:10048000002717C03B503195C31BD04011E01CBB67
:100490000881033CE9F00B34D9F020911601198151
:1004A000110F1213EDCF093641F10D3211F0013E5B
:1004B00039F7009312013F914F911F910F912F91A6
:1004C000DF91CCB3C0FD51CFCF91CFBFCF91189565
:1004D00020911201222379F310911301112311F5B8
:1004E000343012F130931301209311011091170150
:1004F0003BE0311B3093170117C00091130101300D
:100500008CF40AE53091010134FD10C00093010123
:10051000C6E0D1E00FC02795A8F45150A9F4220FEE
:100520000000F9CF4AE503C042ED01C0432FC4E10A
:10053000D0E032E014B11360289A14B905B120E478
:1005400013E05F93012756E005B9279520F4515039
:1005500021F4220FF9CF012756E000003B5A05B9DC
:10056000D0F2279528F4515029F4220F0000F9CF3A
:10057000012756E0279505B920F4515021F4220FA8
:10058000F9CF012756E02991332305B921F60C7FD5
:1005900010911501110FC651D04005B911F01093FB
:1005A000160111E01CBB016014B11C7F402F4C7F71
:1005B0005F9100C000C005B914B945B97CCF482F80
:1005C00058E080E047FD18C02B98440F880F1C9915
:1005D0008F5F2D9A36B52091320196B5931B9217F5
:1005E000E0F32D9836B52091320196B5931B921702
:1005F000E0F35A9539F708952B9AE7CF8EBD0DB4E5
:1006000007FEFDCF8EB50895DC01CB0121E1B69543
:10061000A795979587952A95D1F720912F012817AF
:10062000D9F080932F01E0910201F09103018DE454
:100630000995E0910201F091030180E00995E091B4
:100640000201F091030180912F010995E0910201CF
:10065000F091030180E009940895809131018CBDEF
:10066000809130018DBD0895811110C08EEF92E010
:10067000909303018093020181E08093320182E52F
:100680008093310181E08093300108958830A0F497
:100690002FED32E03093030120930201853009F4FD
:1006A0003FC040F58330C1F1843091F1823061F573
:1006B00080E68093320108952EEF32E030930301FB
:1006C000209302011092300191E0909332018B301F
:1006D00069F040F48830A1F0893089F682E5809392
:1006E000310108958C3059F69093300181E5809363
:1006F00031010895863049F083E0809332010895F6
:1007000083E580933101089580EC80933201089550
:1007100088E180933201089580E380933201089547
:100720008CE080933201089526B59091320186B510
:10073000821B8917E0F3089584B18C6284B92A98EA
:100740002D9826B59091320186B5821B8917E0F36A
:100750002A9A26B59091320186B5821B8917E0F35B
:100760002A9880910201909103018E5F924019F0C6
:1007700010922F010895809131018CBD809130013C
:100780008DBD10922F01089584B1837D84B985B108
:10079000837D85B91CBC0895CF93DF93D0E2E091AF
:1007A0000201F09103018CEA0995E0910201F091B8
:1007B000030183E50995E0910201F091030180E0D6
:1007C0000995C82FE0910201F091030180E009959D
:1007D000C33561F11CBC26B59091320186B5821BF0
:1007E0008917E0F32A9A26B59091320186B5821BCB
:1007F0008917E0F32A9826B59091320186B5821BBD
:100800008917E0F380910201909103018E5F92407D
:1008100031F0DA9521F681E0DF91CF910895809152
:1008200031018CBD809130018DBDF3CF80E0DF912F
:10083000CF910895CF92DF92EF92FF926B017C01EE
:10084000C701B601E1DEC0FA882783F9E091020111
:10085000F091030180620995D701C60129E0B695A0
:10086000A795979587952A95D1F7E0910201F09188
:1008700003010995D701C601B695A7959795879568
:10088000E0910201F09103010995E0910201F091DC
:10089000030180E0FF90EF90DF90CF900994CF921A
:1008A000DF92EF92FF92CF93DF936B017C01C42F15
:1008B000D22FC701B601A8DEC0FA882783F9E091DC
:1008C0000201F091030180640995D701C60129E076
:1008D000B695A795979587952A95D1F7E09102014E
:1008E000F09103010995D701C601B695A795979593
:1008F0008795E0910201F09103010995E0910201D1
:10090000F09103018C2F0995D115D1F0CF37B1F0BB
:10091000C6B5DEE1C701B6018DDF8F3789F486B534
:100920008C1B8D33B8F3C6B5DA95A1F781E0DF9162
:10093000CF91FF90EF90DF90CF9008958FE09DD002
:1009400080E0DF91CF91FF90EF90DF90CF900895FE
:10095000CF92DF92EF92FF92CF93DF936B017C01F6
:10096000C42FC701B60150DEE0910201F0910301EE
:100970008CE40995D701C60129E0B695A79597950E
:1009800087952A95D1F7E0910201F091030109952D
:10099000D701C601B695A79597958795E091020175
:1009A000F09103010995E0910201F091030180E0CB
:1009B0000995CF3FB1F0C6B5DEE1C701B6013ADF18
:1009C0008F3F89F486B58C1B8D33B8F3C6B5DA95A5
:1009D000A1F781E0DF91CF91FF90EF90DF90CF9072
:1009E00008958FE04AD080E0DF91CF91FF90EF90A3
:1009F000DF90CF900895CF93DF93EC01E091020157
:100A0000F091030180EA0995E0910201F091030160
:100A10008D2F0995E0910201F09103018C2F09952A
:100A2000E0910201F091030180E0DF91CF91099400
:100A30001F93CF93DF93D82F192FC62FE091020178
:100A4000F091030180EC0995E0910201F09103011E
:100A5000812F0995E0910201F09103018D2F0995F5
:100A6000E0910201F09103018C2F09958EE105D0F0
:100A700080E0DF91CF911F910895811549F030E01A
:100A800026B596B5921B9C33E0F33F5F8313F8CFF6
:100A90000895259A23982B9A50E217D05A95E9F792
:100AA0000895AC0188E605D0842F03D089E601D0F3
:100AB000852F0FD028E030E0382780FB869506D0C0
:100AC0002A95D1F730FB02D000D0689423982B9A56
:100AD00016F02B98239AE0914801F0914901319743
:100AE000F0F72D9AE3B1E3FBE0914801F091490161
:100AF0003197F0F72D98089520ECE7DF46F42A951A
:100B0000E1F780E02AE1E5DF2A95E9F7DECF28E08A
:100B100030E0DBDF869587F938272A95D1F7D5DFD6
:100B200027F9322772F3D1DFD0CFDB01742FB9DF81
:100B300084E2BFDFE1DF8D937A95D1F70895DB0181
:100B4000742FAFDF83EFB5DF8DE1B3DF84E6B1DF74
:100B50008D91AFDF82E7ADDFCFDF8078D9F77A956F
:100B600089F70895CF93DF93EC01E981E150EF37E6
:100B700068F4F0E0E959F74F0994329B4AC180913B
:100B80003E0172DD10923D014198D6DD80E020E407
:100B900031E03093050120930401DF91CF91089556
:100BA00081E0809340011092410110924201109225
:100BB000430184E0ECCFE8DD419AE8CFE091020107
:100BC000F09103018A81099580934001E09102012F
:100BD000F09103018B81099580934101E09102011D
:100BE000F09103018C81099580934201E09102010B
:100BF000F09103018D8109958093430184E0C7CF73
:100C000080913D0181110EC08A819B81092E000CCB
:100C1000AA0BBB0B8093390190933A01A0933B013F
:100C2000B0933C018E819F8190933801809337016E
:100C300082E080933F018FEFAACFAEDD8093400129
:100C400081E0A5CF80913D0181110EC08A819B81F9
:100C5000092E000CAA0BBB0B8093390190933A012B
:100C6000A0933B01B0933C013C812D81822F8F707A
:100C70008093340140E1249FC001112488279F7094
:100C8000830F911D909336018093350120FD809351
:100C900033018E819F81909338018093370181E0E9
:100CA00080933F018FEF73CF80913D0181110EC082
:100CB0008A819B81092E000CAA0BBB0B8093390102
:100CC00090933A01A0933B01B0933C018E819F81A8
:100CD000909338018093370183E080933F018FEF39
:100CE00056CF80913D0181110EC08A819B81092ED2
:100CF000000CAA0BBB0B8093390190933A01A0938F
:100D00003B01B0933C0110923601109235011092D4
:100D100034018E819F81909338018093370184E064
:100D200080933F018FEF33CF81E080933D018A8133
:100D30009B81AC81BD818093390190933A01A0934E
:100D40003B01B0933C0122CF8A8180933E011092F7
:100D5000400181E01CCF8A819B819093490180935F
:100D600048012A9A229A83E088DE2A98419880E1F5
:100D700084DE8FDE0BCF80EC9CDE80E09ADE8AE0A2
:100D80007CDE2A9A85E079DE2A9885E076DE84B1D9
:100D9000837D84B985B1837D85B9419AF7CEACDE78
:100DA0008093400181E0F3CE8A8183DEEFCE8A8199
:100DB0009B81092E000CAA0BBB0B809339019093E9
:100DC0003A01A0933B01B0933C018E819F819093A7
:100DD00038018093370185E080933F018FEFD7CEB4
:100DE0008A819B81092E000CAA0BBB0B80933901D1
:100DF00090933A01A0933B01B0933C018E819F8177
:100E0000909338018093370186E080933F018FEF04
:100E1000BECE85E029DCB6CEFF920F931F93CF9311
:100E2000DF93382F792FF62E20913F018EEF820F1E
:100E3000823028F18FEF2530E1F4462F632F809127
:100E4000390190913A0171DE8091390190913A0116
:100E5000A0913B01B0913C018F0D911DA11DB11DD1
:100E60008093390190933A01A0933B01B0933C01E8
:100E70008F2DDF91CF911F910F91FF9008956115F4
:100E800089F18091390190913A01A0913B01B09193
:100E90003C01C32FD72F8E01060F111D1AC0ABDDE9
:100EA00089938091390190913A01A0913B01B091D1
:100EB0003C010196A11DB11D8093390190933A0127
:100EC000A0933B01B0933C010C171D0741F020910A
:100ED0003F01223021F7BC01CD01ACDCE1CF88E03D
:100EE000F81630F610923F018F2DC3CFFF920F936B
:100EF0001F93CF93DF93382F792F062F20913F0137
:100F0000273008F093C082E5022E01C086950A942E
:100F1000EAF780FF8BC0263009F491C0611509F40F
:100F2000BAC08091390190913A01A0913B01B091F2
:100F30003C01C32FD72F0C0F1D2F111DF12C1BC0EF
:100F40006091390170913A0180913B0190913C018F
:100F5000DC01CB010196A11DB11D80933901909355
:100F60003A01A0933B01B0933C01C017D10709F4AB
:100F70005FC020913F0149912130D1F52091350189
:100F800030913601232BB9F521E0BC01CD0187DC7E
:100F900080913701909138010197909338018093A7
:100FA0003701892B69F66091390170913A0180917E
:100FB0003B0190913C0110923F012091340121FFAF
:100FC00014C0409133012091350130913601421710
:100FD000130659F0FE014291BBDC6091390170911A
:100FE0003A0180913B0190913C01FF24F394B0CFF2
:100FF000642F1EDDCDCF20E0BC01CD0150DC8091FF
:1010000033018150809333018111C2CF6091390146
:1010100070913A0180913B0190913C01FE01429117
:1010200097DC8091350180933301B2CFFF24FA948D
:101030008F2DDF91CF911F910F91FF900895462F33
:10104000632F8091390190913A0179DD80913901C6
:1010500090913A01A0913B01B0913C01800F911D0C
:10106000A11DB11D8093390190933A01A0933B01DA
:10107000B0933C018091370190913801801B910918
:101080009093380180933701892B29F410923F0106
:10109000FF24F394CDCFF12C8F2DDF91CF911F91B1
:1010A0000F91FF9008951BB815B88AB1837F8AB954
:1010B0008FEF84B914B883E087B99EEF98B985BDE6
:1010C00031D97894FCD7FBD7FDCFF894FFCF55CD1D
:1010D00072CD74CD95CDB1CDB5CDE6CD02CE24CEB9
:1010E00033CE39CE48CE5BCE5FCE61CE79CE4ECDFB
:1010F0004DCD4CCD4BCD4ACD49CD48CD47CD46CD3C
:1011000045CD44CD43CD42CD41CD40CD3FCD3ECD6B
:101110003DCD3CCD3BCD3ACD39CD38CD37CD36CD9B
:1011200035CD34CD33CD32CD31CD30CD2FCD2ECDCB
:101130002DCD2CCD2BCD2ACD29CD28CD27CD26CDFB
:1011400025CD24CD23CD22CD21CD20CD1FCD1ECD2B
:101150001DCD1CCD1BCD1ACD19CD18CD17CD16CD5B
:1011600015CD14CD13CD12CD11CD10CD0FCD0ECD8B
:101170000DCD0CCD0BCD0ACD09CD08CD07CD06CDBB
:1011800005CD04CD03CD02CD01CD00CDFFCCFECCED
:10119000FDCCFCCCFBCCFACCF9CCF8CCF7CCF6CC23
:1011A000F5CCF4CCF3CCF2CCF1CCF0CCEFCCEECC53
:1011B000EDCCECCCEBCCEACCE9CCE8CCE7CCE6CC83
:0C11C000E5CCE4CCE3CCE2CCE1CCEACC02
:0411CC00FF5AFE02C6
:00000001FF
