:107000000C943D380C945A380C945A380C945A38D5
:107010000C945A380C945A380C945A380C945A38A8
:107020000C945A380C945A380C945A380C945A3898
:107030000C945A380C945A380C945A380C945A3888
:107040000C945A380C945A380C945A380C945A3878
:107050000C945A380C945A380C945A380C945A3868
:107060000C945A380C945A3858426A01703D773D56
:10707000793DAE3D0000963DC13D11241FBECFEFCE
:10708000D8E0DEBFCDBF11E0A0E0B1E0E2E0FCE778
:1070900002C005900D92A030B107D9F711E0A0E031
:1070A000B1E001C01D92A138B107E1F70E94003B99
:1070B0000C94FF3D0C940038A0E0B0E0E2E6F8E369
:1070C0000C94D23D7C01EB018A01690109C0CE011B
:1070D0002196F6010995F70181937F010150104037
:1070E00001151105A1F7CDB7DEB7E8E00C94EE3D30
:1070F000A0E0B0E0EEE7F8E30C94D23DEC017B01B8
:107100008A01690109C0CE012196F70161917F01D1
:10711000F60109950150104001151105A1F7CDB7F1
:10712000DEB7E8E00C94EE3D9C01F999FECF32BD4C
:1071300021BDF89A80B508959C01F999FECF1FBA38
:1071400032BD21BD60BD0FB6F894FA9AF99A0FBE10
:10715000089590910001923050F48091C00087FF13
:10716000FACF81E0809300018091C6000895FFCF9F
:10717000982F80910001823068F45A9A9093C6004B
:107180008091C00086FFFCCF8091C0008064809316
:10719000C0005A9808950E94A938382F0E94A93833
:1071A000282FC9010895AF92BF92CF92DF92EF923C
:1071B000FF920F931F93CF93DF935B016C017901D3
:1071C0008A01C0E0D0E020E830E035C02038310549
:1071D00081F481E091E0B601A5010E94E13C80E8E4
:1071E00090E0A0E0B0E0A80EB91ECA1EDB1E20E0B1
:1071F00030E0F901EF5FFE4F8081C8278C2F829528
:107200008C27082E869586958025082E86958025C4
:1072100087700C2ECD2F869507948795D02DC82783
:1072200006948795D025C8272F5F3F4F0894E10823
:10723000F10801091109E114F1040105110509F032
:10724000C5CFCE01DF91CF911F910F91FF90EF90AD
:10725000DF90CF90BF90AF900895CF92DF92EF92E2
:10726000FF920F931F9381E091E040E85FE660E0BA
:1072700070E00E94E13C80917B01883509F0F4C008
:1072800080917C01823409F0EFC080917D018934C6
:1072900009F0EAC080917E01863409F0E5C0F090E3
:1072A0007F010091800160E078E380E090E02AEFC8
:1072B00037E340E050E00E94D3382FEF8227382F89
:1072C00032953827032E369536953025032E369580
:1072D00030253770082E892F369507943795902DD5
:1072E000832706943795902583278227382F329558
:1072F0003827032E369536953025032E36953025C2
:107300003770082E892F369507943795902D83274F
:1073100006943795902583278227382F3295382772
:10732000032E369536953025032E36953025377049
:10733000082E892F369507943795902D832706942C
:107340003795902583278227382F32953827032EAB
:10735000369536953025032E369530253770082E14
:10736000892F369507943795902D83270694379566
:10737000902583278227382F32953827032E36957C
:1073800036953025032E369530253770082E892FF7
:10739000369507943795902D832706943795902539
:1073A00083278227282F22952827022E2695269587
:1073B0002025022E269520252770082E892F269518
:1073C00007942795902D822706942795902582274C
:1073D0003F2D20E010E0202B312B2817390709F032
:1073E00041C0EE24FF24870188E0C82EDD24DA9412
:1073F0008BB18C258BB9B801A7014050584C6F4F09
:107400007F4F81E091E00E94E13C80E8E81687E34D
:10741000F80680E0080780E0180760F0D0927B0152
:10742000D0927C01D0927D01D0927E01D0927F01DA
:10743000D0928001C801B70141E051E021E00E94F3
:10744000FE3C80E890E0A0E0B0E0E80EF91E0A1FE4
:107450001B1F90E0E91698E3F90690E0090790E019
:10746000190731F60E94963D1F910F91FF90EF9002
:10747000DF90CF9008950F931F93CF93DF938C01EC
:10748000EA016534A9F46881798181E091E0A8017D
:1074900024E938E30E945C38980140E050E088819C
:1074A0009981AA81BB81820F931FA41FB51F30C091
:1074B000663409F03EC088819981AA81BB81880F1A
:1074C000991FAA1FBB1F88839983AA83BB8321E0CE
:1074D00031E0A801420F531FE881F981E491D901FD
:1074E000EC9307B600FCFDCF88819981AA81BB810E
:1074F0000196A11DB11D88839983AA83BB832F5F49
:107500003F4F2417350741F7B695A795979587956F
:1075100088839983AA83BB83C0E0D0E007C0FE01C3
:10752000EF5FFE4F80810E94B8382196C017D107C7
:10753000B4F3DF91CF911F910F910895DF92EF92F5
:10754000FF920F931F93CF93DF938C01D62E7A0176
:10755000C0E0D0E0C017D10710F08FEF02C00E944A
:10756000A938FE01EF5FFE4F80832196C038D10518
:1075700089F785E4D816D9F4F7018081918161E01B
:1075800071E0A8012CE938E30E947838980140E0C6
:1075900050E0F70180819181A281B381820F931F16
:1075A000A41FB51F80839183A283B38320C0F6E418
:1075B000DF1611F08FE31CC0F701608171818281B9
:1075C000938116950795980140E050E0260F371FEC
:1075D000481F591F2083318342835383660F771FCF
:1075E000881F991F41E051E021E00E94FE3C8DE0A0
:1075F000DF91CF911F910F91FF90EF90DF90089551
:107600005F926F927F928F929F92AF92BF92CF9232
:10761000DF92EF92FF920F931F93DF93CF9300D0EF
:1076200000D0CDB7DEB719821A821B821C8210925D
:107630000001539A5B9A3C98449A0E94543D589A90
:10764000529A5A9814BE88E10FB6F894809360005D
:10765000109260000FBE000000000000000096B114
:107660008091C00087FD06C0892F82958F7080951C
:10767000817003C081E080930001A895CC24DD24B3
:1076800018E0612E55245394B5E07B2E4E010894EA
:10769000811C911C5DC18BB186258BB90E94A938D4
:1076A000982F813611F489E54DC1813429F40E9467
:1076B000CB38A0E0B0E008C0883461F40E94A9385B
:1076C000A82F0E94CB38BB2789839A83AB83BC83C6
:1076D0008DE038C1853629F40E94CD3C0E94403DA2
:1076E000F7CF823641F489E50E94B83880E00E94E5
:1076F000B83880E827C1823489F40E94CB38182F2B
:10770000092F282F392FC9016C010E94A938682F31
:10771000812F902FA4010E949E3A14C1873689F4CC
:107720000E94CB38182F092F282F392FC9016C013F
:107730000E94A938682F812F902FA4010E943B3A04
:1077400003C1823559F4E981FA81EE0FFF1F0591DB
:107750001491812F0E94B838802F55C0833629F4A8
:107760000E94A938C82EDD24B3CF8334B1F40E941F
:10777000A938B82EAA24CA28DB2889819A81AB812E
:10778000BC81FC01EE0FFF1F060150925700E895E7
:1077900011240196A11DB11D97CF8D36A1F48981C9
:1077A0009A81AB81BC81803028E3920720E0A20758
:1077B00020E0B20708F0C5C0FC01EE0FFF1F709279
:1077C0005700E89585CF843491F4E980FA800B81E5
:1077D0001C810E94A938F999FECF1FBAF2BCE1BC06
:1077E00080BD0FB6F894FA9AF99A0FBE0EC084368F
:1077F000C1F489819A81AB81BC81F999FECF92BD98
:1078000081BDF89A80B50E94B83889819A81AB8190
:10781000BC810196A11DB11D89839A83AB83BC8372
:1078200093C0803509F454CF8C3409F451CF85349A
:1078300029F48DE00E94B83880E087C0803711F4C9
:1078400083E580C0843729F48BE70E94B83880E054
:1078500079C08857823010F0943519F40E94A93805
:1078600037CF9335A1F488E50E94B83882E40E94AE
:10787000B8388FE60E94B8388FE60E94B83884E79F
:107880000E94B8388BE20E94B8388BE25BC0963514
:1078900029F481E30E94B83887E354C0933741F458
:1078A0008FE00E94B83885E90E94B8388EE14AC05E
:1078B000983609F044C00E94A938863481F1873493
:1078C00028F4813441F0823431F50EC08136A9F0BC
:1078D000843709F517C060E070E080E090E020E0B8
:1078E00030E740E050E023C060E070E780E090E0E7
:1078F00020E030E140E050E01AC060E070E080E05D
:1079000090E004C060E078E380E090E020E038E3BD
:1079100040E050E00CC08FE30E94B838BCCE60E07D
:1079200070E080E090E020E030E840E050E00E942D
:10793000D338182F892F0E94B838812F03C09B316C
:1079400019F08FE30E94B83881E007B600FCFDCF44
:10795000882309F0A0CE0E942D390E94643D5898DA
:1079600052985A98449853985B980C94000080E081
:1079700090E00F900F900F900F90CF91DF911F919B
:107980000F91FF90EF90DF90CF90BF90AF909F90BE
:107990008F907F906F905F900895E0E0F0E083E03B
:1079A00080935700E89507B600FCFDCFE058FF4FE5
:1079B00090E7E030F907A1F781E180935700E8955F
:1079C0000895CF93DF93EC01CB01BA0120E030E0C2
:1079D00040E050E0D901F901E60FF71FE491AC0F48
:1079E000BD1FEC932F5F3F4F4F4F5F4F2038310546
:1079F0004105510579F7DF91CF910895EF92FF92FC
:107A00000F931F93CF93DF937B018C01DA01F999D8
:107A1000FECF222339F4A701F70111E0B701605826
:107A20007F4F09C083E0F70180935700E89507B6C0
:107A300000FCFDCFF0CF8C9111963C91119720E086
:107A4000E901C80FD11D12960E0110935700E89559
:107A500011243296E617F70771F785E0FA01809353
:107A60005700E89507B600FCFDCF81E180935700F1
:107A7000E895DF91CF911F910F91FF90EF900895BE
:107A800080E090E02FEFF999FECF1FBA92BD81BD43
:107A900020BD0FB6F894FA9AF99A0FBE019633E01A
:107AA0008F3F930781F7089582E290E09093C5009D
:107AB0008093C40082E08093C00088E18093C1007D
:107AC00086E08093C20008951092C0001092C10019
:107AD00086E08093C2001092C5001092C400089501
:107AE000FC0187E091E09183808380E0089582E04B
:107AF00008959B01AC019FB7213080E7380780E0F3
:107B0000480780E0580710F083E00895F89483E078
:107B1000F90180935700E89507B600FCFDCF81E19D
:107B200080935700E8959FBF80E008959FB7F89431
:107B3000E0E0F8E383E080935700E89507B600FCA7
:107B4000FDCFE058FF4F20E7E030F207A1F781E1D9
:107B500080935700E8959FBF80E008951F931FB75B
:107B6000613030E7730730E0830730E0930710F0AF
:107B700083E005C0F8940E94FE3C1FBF80E01F9187
:107B800008956050784C8F4F9F4F0E94AE3D0895EE
:107B90002F923F924F925F926F927F928F929F921D
:107BA000AF92BF92CF92DF92EF92FF920F931F930B
:107BB000CF93DF93CDB7DEB7CA1BDB0B0FB6F894BC
:107BC000DEBF0FBECDBF09942A88398848885F84FC
:107BD0006E847D848C849B84AA84B984C884DF806D
:107BE000EE80FD800C811B81AA81B981CE0FD11D51
:107BF0000FB6F894DEBF0FBECDBFED010895F89427
:027C0000FFCFB4
:040000030000700089
:00000001FF
